:020000040800F2
:1000000000000220ED1300083D1400083D14000814
:100010003D1400083D1400083D14000800000000D5
:100020000000000000000000000000003D14000877
:100030003D140008000000003D140008CD10000829
:100040003D1400083D1400083D1400083D1400084C
:100050003D1400083D1400083D1400083D1400083C
:100060003D1400083D1400083D1400083D1400082C
:100070003D1400083D1400083D1400083D1400081C
:100080003D1400083D140008F911000800000000AC
:100090000000000000000000000000003D14000807
:1000A0003D1400083D1400083D1400083D140008EC
:1000B0003D140008B91100083D1400083D14000863
:1000C0003D1400083D1400083D1400083D140008CC
:1000D0003D1400083D140008251100080000000030
:1000E000E91000083D1400083D140008000000005D
:1000F0000000000000000000000000003D140008A7
:10010000000000003D1400087D1100083D140008A7
:1001100000000000000000000000000000000000DF
:100120003D1400083D1400083D1400083D1400086B
:100130003D14000800000000000000000000000066
:100140000000000000000000000000003D14000856
:100150003D1400083D1400083D140008511100082A
:100160003D1400083D1400080000000000000000DD
:10017000000000000000000000000000000000007F
:10018000000000000000000000000000000000006F
:080190003D1400083D140008B5
:1001A00010B5054C237833B9044B13B10448AFF3B1
:1001B00000800123237010BDF40100200000000026
:1001C000B43D000808B5034B1BB103490348AFF326
:1001D000008008BD00000000F8010020B43D0008C8
:1001E00001F0FF01102A2BDB10F0070F08D010F8E8
:1001F000013B013A8B422DD010F0070F42B3F6D1EC
:10020000F0B441EA012141EA014122F007047FF004
:1002100000070023F0E80256083C85EA010586EA5B
:10022000010685FA47F5A3FA87F586FA47F6A5FA97
:1002300087F68EB9EED1F0BC01F0FF0102F00702A3
:1002400032B110F8013B013A83EA010313B1F8D14E
:100250000020704701387047002D06BF354603382F
:10026000073815F0010F07D1013015F4807F02BF68
:10027000013015F4C03F0130F0BC0138704700BFB9
:10028000034613F8012B002AFBD1181A01387047D6
:1002900081F0004102E000BF83F0004330B54FEA37
:1002A00041044FEA430594EA050F08BF90EA020FA4
:1002B0001FBF54EA000C55EA020C7FEA645C7FEA37
:1002C000655C00F0E2804FEA5454D4EB5555B8BF5A
:1002D0006D420CDD2C4480EA020281EA030382EACB
:1002E000000083EA010180EA020281EA0303362D5D
:1002F00088BF30BD11F0004F4FEA01314FF4801C30
:100300004CEA113102D0404261EB410113F0004F41
:100310004FEA03334CEA133302D0524263EB4303F8
:1003200094EA050F00F0A780A4F10104D5F1200E96
:100330000DDB02FA0EFC22FA05F2801841F10001F1
:1003400003FA0EF2801843FA05F359410EE0A5F1C5
:1003500020050EF1200E012A03FA0EFC28BF4CF0F6
:10036000020C43FA05F3C01851EBE37101F00045AC
:1003700007D54FF0000EDCF1000C7EEB00006EEBB9
:100380000101B1F5801F1BD3B1F5001F0CD3490843
:100390005FEA30004FEA3C0C04F101044FEA44529A
:1003A00012F5800F80F09A80BCF1004F08BF5FEA21
:1003B000500C50F1000041EB045141EA050130BD01
:1003C0005FEA4C0C404141EB0101013C28BFB1F513
:1003D000801FE9D291F0000F04BF01460020B1FA5E
:1003E00081F308BF2033A3F10B03B3F120020CDA31
:1003F0000C3208DD02F1140CC2F10C0201FA0CF00F
:1004000021FA02F10CE002F11402D8BFC2F1200C73
:1004100001FA02F120FA0CFCDCBF41EA0C01904029
:10042000E41AA2BF01EB0451294330BD6FEA040472
:100430001F3C1CDA0C340EDC04F11404C4F120025D
:1004400020FA04F001FA02F340EA030021FA04F36F
:1004500045EA030130BDC4F10C04C4F1200220FAC6
:1004600002F001FA04F340EA0300294630BD21FA04
:1004700004F0294630BD94F0000F83F4801306BFCA
:1004800081F480110134013D4EE77FEA645C18BFBE
:100490007FEA655C29D094EA050F08BF90EA020F55
:1004A00005D054EA000C04BF1946104630BD91EA4D
:1004B000030F1EBF0021002030BD5FEA545C05D150
:1004C0004000494128BF41F0004130BD14F580048F
:1004D0003CBF01F5801130BD01F0004545F0FE4103
:1004E00041F470014FF0000030BD7FEA645C1ABF38
:1004F000194610467FEA655C1CBF0B46024650EA6F
:10050000013406BF52EA033591EA030F41F400219A
:1005100030BD00BF90F0000F04BF0021704730B520
:100520004FF4806404F132044FF000054FF00001F5
:1005300050E700BF90F0000F04BF0021704730B5B6
:100540004FF4806404F1320410F0004548BF40428B
:100550004FF000013EE700BF42004FEAE2014FEAE0
:1005600031014FEA02701FBF12F07F4393F07F4FBB
:1005700081F06051704732F07F4208BF704793F0BE
:100580007F4F04BF41F40021704730B54FF46074D1
:1005900001F0004521F000411CE700BF50EA0102D4
:1005A00008BF704730B54FF000050AE050EA01027D
:1005B00008BF704730B511F0004502D5404261EBED
:1005C00041014FF4806404F132045FEA915C3FF42E
:1005D000D8AE4FF003025FEADC0C18BF03325FEACB
:1005E000DC0C18BF033202EBDC02C2F1200300FA7C
:1005F00003FC20FA02F001FA03FE40EA0E0021FAA1
:1006000002F11444BDE600BF70B54FF0FF0C4CF48E
:10061000E06C1CEA11541DBF1CEA135594EA0C0F40
:1006200095EA0C0F00F0DEF82C4481EA030621EA7B
:100630004C5123EA4C5350EA013518BF52EA0335B6
:1006400041F4801143F4801338D0A0FB02CE4FF068
:100650000005E1FB02E506F00042E0FB03E54FF098
:100660000006E1FB03569CF0000F18BF4EF0010E90
:10067000A4F1FF04B6F5007F64F5407404D25FEA8C
:100680004E0E6D4146EB060642EAC62141EA55513F
:100690004FEAC52040EA5E504FEACE2EB4F1FD0C81
:1006A00088BFBCF5E06F1ED8BEF1004F08BF5FEAFF
:1006B000500E50F1000041EB045170BD06F00046B1
:1006C00046EA010140EA020081EA0301B4EB5C045E
:1006D000C2BFD4EB0C0541EA045170BD41F4801156
:1006E0004FF0000E013C00F3AB8014F1360FDEBF7B
:1006F000002001F0004170BDC4F10004203C35DA57
:100700000C341BDC04F11404C4F1200500FA05F3D9
:1007100020FA04F001FA05F240EA020001F000427A
:1007200021F0004110EBD37021FA04F642EB0601F0
:100730005EEA430E08BF20EAD37070BDC4F10C041A
:10074000C4F1200500FA04F320FA05F001FA04F2DE
:1007500040EA020001F0004110EBD37041F10001CA
:100760005EEA430E08BF20EAD37070BDC4F12005D5
:1007700000FA05F24EEA020E20FA04F301FA05F23D
:1007800043EA020321FA04F001F0004121FA04F2E5
:1007900020EA020000EBD3705EEA430E08BF20EAB5
:1007A000D37070BD94F0000F0FD101F000464000EF
:1007B00041EB010111F4801F08BF013CF7D041EA71
:1007C000060195F0000F18BF704703F00046520075
:1007D00043EB030313F4801F08BF013DF7D043EA46
:1007E0000603704794EA0C0F0CEA135518BF95EAFC
:1007F0000C0F0CD050EA410618BF52EA4306D1D183
:1008000081EA030101F000414FF0000070BD50EAA1
:10081000410606BF1046194652EA430619D094EA2B
:100820000C0F02D150EA013613D195EA0C0F05D115
:1008300052EA03361CBF104619460AD181EA030169
:1008400001F0004141F0FE4141F470014FF0000021
:1008500070BD41F0FE4141F4780170BD70B54FF0BC
:10086000FF0C4CF4E06C1CEA11541DBF1CEA13553C
:1008700094EA0C0F95EA0C0F00F0A7F8A4EB05041E
:1008800081EA030E52EA03354FEA013100F0888015
:100890004FEA03334FF0805545EA131343EA1263DE
:1008A0004FEA022245EA111545EA10654FEA002693
:1008B0000EF000419D4208BF964244F1FD0404F54C
:1008C000407402D25B084FEA3202B61A65EB0305A8
:1008D0005B084FEA32024FF480104FF4002CB6EB65
:1008E000020E75EB030E22BFB61A754640EA0C00E5
:1008F0005B084FEA3202B6EB020E75EB030E22BF25
:10090000B61A754640EA5C005B084FEA3202B6EB65
:10091000020E75EB030E22BFB61A754640EA9C0024
:100920005B084FEA3202B6EB020E75EB030E22BFF4
:10093000B61A754640EADC0055EA060E18D04FEAB2
:10094000051545EA16754FEA06164FEAC30343EA52
:1009500052734FEAC2025FEA1C1CC0D111F4801F1F
:100960000BD141EA00014FF000004FF0004CB6E718
:1009700011F4801F04BF01430020B4F1FD0C88BFB7
:10098000BCF5E06F3FF6AFAEB5EB030C04BFB6EBC2
:10099000020C5FEA500C50F1000041EB045170BDB5
:1009A0000EF0004E4EEA113114EB5C04C2BFD4EBE2
:1009B0000C0541EA045170BD41F480114FF0000E66
:1009C000013C90E645EA060E8DE60CEA135594EAE2
:1009D0000C0F08BF95EA0C0F3FF43BAF94EA0C0FE5
:1009E0000AD150EA01347FF434AF95EA0C0F7FF45A
:1009F00025AF104619462CE795EA0C0F06D152EAAE
:100A000003353FF4FDAE1046194622E750EA410691
:100A100018BF52EA43067FF4C5AE50EA41047FF4A2
:100A20000DAF52EA43057FF4EBAE12E74FF0FF3C07
:100A300006E000BF4FF0010C02E000BF4FF0010CD8
:100A40004DF804CD4FEA410C7FEA6C5C4FEA430C51
:100A500018BF7FEA6C5C1BD001B050EA410C0CBFA0
:100A600052EA430C91EA030F02BF90EA020F002002
:100A7000704710F1000F91EA030F58BF994208BF69
:100A800090422CBFD8176FEAE37040F00100704726
:100A90004FEA410C7FEA6C5C02D150EA013C07D17D
:100AA0004FEA430C7FEA6C5CD6D152EA033CD3D0C8
:100AB0005DF8040B704700BF8446104662468C46C2
:100AC0001946634600E000BF01B5FFF7B7FF0028F5
:100AD00048BF10F1000F01BD4DF808EDFFF7F4FF1E
:100AE0000CBF012000205DF808FB00BF4DF808EDA9
:100AF000FFF7EAFF34BF012000205DF808FB00BFCC
:100B00004DF808EDFFF7E0FF94BF012000205DF8ED
:100B100008FB00BF4DF808EDFFF7CEFF94BF0120A2
:100B200000205DF808FB00BF4DF808EDFFF7C4FF9B
:100B300034BF012000205DF808FB00BF4FEA410CE4
:100B40007FEA6C5C02D150EA013C0AD14FEA430CC7
:100B50007FEA6C5C02D152EA033C02D14FF0000004
:100B600070474FF0010070474FEA410212F5001242
:100B700015D211D56FF47873B3EB625212D94FEAE4
:100B8000C12343F0004343EA505311F0004F23FACE
:100B900002F018BF404270474FF00000704750EA23
:100BA000013005D111F0004008BF6FF000407047E0
:100BB0004FF00000704700BF80B400AF00BFBD46DB
:100BC0005DF8047B704780B400AF00BFBD465DF8A0
:100BD000047B704780B400AF00BFBD465DF8047B66
:100BE000704780B400AF00BFBD465DF8047B70471E
:100BF00080B483B000AF78607B681B78DBB21846A6
:100C00000C37BD465DF8047B704780B483B000AFFD
:100C100078600B46FB707B68FA781A7000BF0C375F
:100C2000BD465DF8047B704780B400AF00231846D2
:100C3000BD465DF8047B704780B483B000AF0346C7
:100C4000FB7100BF0C37BD465DF8047B70470000A8
:100C500080B483B000AF786039607B68002B02D02D
:100C60003B68002B06D10A4B0A4A5A61084B0A4AD4
:100C70009A6106E0064A7B685361054A3B689361C6
:100C800000BF00BF0C37BD465DF8047B704700BF56
:100C900000000020D50B0008E30B000880B483B0EF
:100CA00000AF7860396000BF0F4B1B8803F40073FE
:100CB000002BF9D07B68002B02D03B68002B06D1BB
:100CC000094B0A4ADA61084B094A1A6206E0064AE9
:100CD0007B68D361044A3B68136200BF00BF0C37D6
:100CE000BD465DF8047B704700000020290C000819
:100CF000390C000880B483B000AF03463960FB7143
:100D000097F90730002B0ADB3B68DAB20C4997F9F8
:100D100007301201D2B20B4483F800230AE03B688B
:100D2000DAB20849FB7903F00F03043B1201D2B297
:100D30000B441A7600BF0C37BD465DF8047B704744
:100D400000E100E000ED00E080B582B000AF786027
:100D50007B68013BB3F1807F01D301230FE00A4A96
:100D60007B68013B53600F214FF0FF30FFF7C2FF5C
:100D7000054B00229A60044B07221A600023184694
:100D80000837BD4680BD00BF10E000E080B483B0EE
:100D900000AF78604FF06043D3F8803E03F001036A
:100DA000002B13D04FF06043D3F8003E03F0010353
:100DB000002B0BD000E000BF4FF060431B68002BFE
:100DC000F9D04FF060437A68D2B21A707B68184647
:100DD0000C37BD465DF8047B7047000080B584B0D9
:100DE00000AF00F097F843F68960FFF7ADFF0F4BB7
:100DF00004221A630E4B1B6823F440630C4A43F42D
:100E00008063136000F038F80A490B48FFF746FF8B
:100E10000A490B48FFF71CFF4023FB73094A3B1D9F
:100E200092E8030083E80300FEE700BF00380240B9
:100E300000080240451000088D100008610E0008EF
:100E4000490E0008D03D000880B400AF034B0022DB
:100E50001A6000BFBD465DF8047B70478482404243
:100E600080B400AF034B01221A6000BFBD465DF89D
:100E7000047B70478482404280B500AF064B00225D
:100E80001A60642000F024F8034B01221A606420E9
:100E900000F01EF800BF80BD9402414280B582B0D0
:100EA00000AF78607B681846FFF770FF00BF074B04
:100EB0001B6803F08003002BF9D07B68DAB2034B88
:100EC0005A607B6818460837BD4680BD0044004024
:100ED00080B584B000AF786000F010F8F86000BF13
:100EE00000F00CF80246FB68D31A7A689A42F7D2EF
:100EF00000BF00BF1037BD4680BD000080B400AF0A
:100F0000034B1B681846BD465DF8047B704700BF65
:100F10001002002080B400AF464B1B6B454A43F0E3
:100F200003031363444B1B6823F44063424A43F4B6
:100F300000631360404B1B6823F440433E4A43F474
:100F4000004313603C4B1B6823F440533A4A43F47C
:100F500000531360394B1B6823F00C03374A43F0EE
:100F600004031360344B1B6A23F47003324A43F4C6
:100F7000A0031362304B1B6A23F070432E4A43F0E8
:100F8000A04313622C4B1B6A23F070632A4A43F080
:100F9000A0631362284B9B68274A43F44063936025
:100FA000254B9B68244A43F440539360224B9B6833
:100FB000214A43F4404393601E4B5B6C1D4A43F44B
:100FC000805353641E4B00221A601D4B1B681C4A41
:100FD00043F0080313601A4B1B68194A23F00103FE
:100FE0001360174B1B68164A23F400631360144BFD
:100FF0001B68134A23F080031360114B1B68104ACF
:1010000043F4007313600E4B1B680D4A43F4807366
:1010100013600B4B1B680A4A43F004031360084B30
:101020001B68074A43F04003136000BFBD465DF8EC
:10103000047B704700380240000002400004024078
:101040000030014080B485B000AF0346FB7100BFA3
:101050000C4B9B6803F00203002BF9D00A4AFB7982
:10106000137000BF074B9B6803F00103002BF9D0FE
:10107000044BDB68FB7300BF1437BD465DF8047B8F
:10108000704700BF003001400C30014080B400AF19
:1010900000BF0C4B9B6803F00203002BF9D00A4BF6
:1010A000FF221A7000BF074B9B6803F00103002B5F
:1010B000F9D0044BDB68DBB21846BD465DF8047B13
:1010C000704700BF003001400C30014080B400AFD9
:1010D000044B1B680133034A136000BFBD465DF833
:1010E000047B70471002002080B400AF0B4B5B699B
:1010F00003F40053002B0CD0084B5B69074A43F400
:1011000000535361064B5B69054A83F0200353612A
:1011100000BF00BFBD465DF8047B7047003C014046
:101120000000024080B400AF074B1B6803F02003AF
:10113000002B03D0044B5B68044A136000BFBD461C
:101140005DF8047B704700BF00440040140200209B
:1011500080B400AF074B1B6803F02003002B03D0C3
:10116000044B5B68044A136000BFBD465DF8047B16
:10117000704700BF001401401402002080B400AF8B
:101180000B4B1B6903F00103002B0BD0084B1B69B1
:10119000074A23F001031361064B5B69054A83F498
:1011A0000073536100BFBD465DF8047B704700BF0C
:1011B000000C00400000024080B400AF0C4B1B69E3
:1011C00003F00803002B0ED0094B1B69084A23F0DB
:1011D00008031361064BDB6BC833064A1360044AED
:1011E000044B1B68D36300BFBD465DF8047B7047AA
:1011F000000400401C02002080B400AF0D4B1B68AF
:1012000003F02003002B05D00A4B1B68094A23F08A
:1012100020031360074B1B6803F00203002B04D06C
:10122000044BDB6C9AB2044B1A8000BFBD465DF8DC
:10123000047B7047002001401802002080B400AFFA
:1012400001231846BD465DF8047B704780B582B027
:1012500000AF7860396001F009F8034616221A6081
:101260004FF0FF3318460837BD4680BD80B582B0C9
:1012700000AF78604FF0FF317868FFF7E7FFFEE7D7
:1012800080B586B000AFF860B9607A6000237B61FA
:101290000AE0AFF300800146BB685A1CBA60CAB2CC
:1012A0001A707B6901337B617A697B689A42F0DB53
:1012B0007B6818461837BD4680BD80B586B000AF44
:1012C000F860B9607A6000237B6109E0BB685A1C52
:1012D000BA601B781846FFF7E1FD7B6901337B613B
:1012E0007A697B689A42F1DB7B6818461837BD46FD
:1012F00080BD80B483B000AF78604FF0FF331846F4
:101300000C37BD465DF8047B704780B483B000AFF6
:10131000786039603B684FF400525A6000231846E9
:101320000C37BD465DF8047B704780B483B000AFD6
:101330007860012318460C37BD465DF8047B704782
:1013400080B485B000AFF860B9607A6000231846B9
:101350001437BD465DF8047B7047000080B586B049
:1013600000AF7860144A154BD31A7B617B693B61EF
:10137000134B1B68002B02D1114B124A1A60104B01
:101380001A687B6813443A699A4207D200F06EFFEC
:1013900003460C221A604FF0FF3309E0084B1B682C
:1013A000FB60074B1A687B681344054A1360FB68AF
:1013B00018461837BD4680BD00000220000400001A
:1013C000200200207003002080B400AF064BD3F849
:1013D0008830054A43F47003C2F8883000BFBD4628
:1013E0005DF8047B704700BF00ED00E00D488546C6
:1013F000FFF7EAFF0C480D490D4A002302E0D458DC
:10140000C4500433C4188C42F9D30A4A0A4C00234E
:1014100001E013600432A242FBD300F02DFFFFF77E
:10142000DDFCFEE70000022000000020F4010020A7
:10143000B0410008F401002070030020FEE7000026
:10144000024B0146186800F023B800BF840000205A
:1014500070B50E4E0C463168054611B900F0E4FE39
:1014600030602146284600F0DFFE431C0AD0C41C31
:1014700024F00304A04207D0211A284600F0D4FE2D
:10148000013001D14FF0FF34204670BD280200200A
:101490002DE9F843CD1C25F0030508350C2D38BF88
:1014A0000C25002D074601DBA94205D90C233B6022
:1014B00000263046BDE8F883DFF8D08000F068F8F9
:1014C000D8F800301C465CBB29463846FFF7C0FF01
:1014D000431C044655D1D8F800402646002E45D17D
:1014E000002C48D023683146384604EB030900F04D
:1014F0009BFE81453FD121686D1A29463846FFF78A
:10150000A7FF013037D023682B442360D8F8003080
:10151000002B38D05A68A2422BD100225A600FE02B
:101520002268521B1FD40B2A17D96119A3422560C8
:1015300018BF5960636808BFC8F8001062514B605B
:10154000384604F10B0600F029F826F00706231DA3
:10155000F21AAED09B1BA350ABE7A3426268DDD169
:10156000C8F80020ECE723466468ACE734467668A8
:10157000B4E71346CCE70C233B60384600F00EF886
:1015800097E72560DCE75B60FFDE00BF24020020F8
:10159000014800F096BE00BF6C030020014800F037
:1015A00091BE00BF6C0300202DE9FF4755EC104BA6
:1015B000002D0E4619462B46BBBF05F100431D46C4
:1015C00000232D230B700D9BDDF830A0914623F0F6
:1015D0002008BCBF22461446B8F1460F05D0B8F12A
:1015E000450F00D10136022100E0032103AB019336
:1015F00002AB009345EC104B5346324600F018FF07
:10160000B8F1470F074602D119F0010F22D0B8F107
:10161000460F07EB060910D13B78302B0AD1002288
:10162000002320462946FFF757FA18B9C6F10106EC
:10163000CAF80060DAF800309944002200232046FE
:101640002946FFF749FA08B1CDF80C903022039BE8
:101650004B4507D3039B0E9ADB1B3846136004B03F
:10166000BDE8F087591C03911A70F0E7F7B50346FF
:101670000029B8BF494203F8022BB4BF2D222B2208
:10168000092942702ADD0DF1070217460A26944601
:1016900091FBF6F506FB151430340CF8014C0C46A2
:1016A000632C02F1FF322946F1DC3031ACF1020447
:1016B00002F8011C411C2246BA420AD30DF109026C
:1016C000A2EB0C02BC4288BF00221344181A03B0DC
:1016D000F0BD12F8015B01F8015FEDE73023303116
:1016E0008370C170031DF1E72DE9F04F2DED028BE2
:1016F0008DB00C46DDF8608016461F46054600F0AA
:101700005BFDD0F800A05046FEF7BAFD00230A9317
:1017100023680593D8F8003094F818B0073323F005
:10172000070303F10802C8F80020D3E9008929F073
:1017300000430793CDF8188008EE100AC4E9128917
:10174000DDE906019E4B4FF0FF32FFF7F7F988BB4A
:10175000DDE906019A4B4FF0FF32FFF7D1F948BBA4
:101760000022002340464946FFF7C0F910B12D235F
:1017700084F84330934A944BBBF1470F94BF904693
:10178000984603232361059B23F0040323604FF055
:101790000009009733460BAA2146284600F0DAF9E3
:1017A000013040F090804FF0FF300DB0BDEC028B67
:1017B000BDE8F08F42464B4640464946FFF7BEF92A
:1017C00040B14B46002BBCBF2D2384F843307F4AE9
:1017D0007F4BD1E763680BF0DF0206925A1C3FD1C2
:1017E00006236360059B616843F4806200230393D2
:1017F0000AABCDE901B309AB49EC108B0093226031
:101800000DF123032846FFF7CFFE069B0999472BCE
:10181000804608D1C81C02DB6368994241DDABF108
:1018200002035FFA83FBBBF1650F20D801395A46EA
:1018300004F150000991FFF719FF0A9A1318012AC1
:101840008146236102DC2268D20701D5013323617E
:101850009DF82330002B9CD02D2384F8433098E74B
:10186000069A472ABED1002BBCD10123B9E7BBF1B0
:10187000660F18D1002963680BDD216113B9226856
:10188000D00702D501330B442361A1654FF0000955
:10189000DEE713B92268D20701D50233F4E701234A
:1018A000F2E74FF0670B0A9B994205DB2368216141
:1018B000D807EAD54B1CE7E70029D4BFC1F10202E3
:1018C00001221344E0E723685A0507D423694246FE
:1018D00031462846B84701302CD164E7BBF1650F8B
:1018E00040F2E080D4E9120100220023FFF7F4F86F
:1018F000002834D0374A012331462846B847013002
:101900003FF451AFDDE909239A4202DB2368D8078F
:1019100010D518EE103A524631462846B8470130E5
:101920003FF441AF4FF0000804F11A090A9B013B54
:10193000434509DC23689B0700F10781E0680B9BA6
:101940009842B8BF184630E701234A463146284638
:10195000B84701303FF427AF08F10108E6E7099BDB
:10196000002B39DC1B4A012331462846B847013099
:101970003FF419AFDDE90932134302D12368D907D7
:10198000D8D518EE103A524631462846B8470130AD
:101990003FF409AF4FF0000904F11A0A099B5B42BA
:1019A0004B4501DC0A9B92E701235246314628460B
:1019B000B84701303FF4F7AE09F10109EEE700BF87
:1019C000FFFFEF7F373F00083B3F00083F3F000825
:1019D000433F0008473F00080A9AA36D9A42A8BFF8
:1019E0001A46002A914637DC4FF0000B29EAE979C4
:1019F00004F11A02A36D0593A3EB09035B4533DCE5
:101A0000DDE909239A423BDB2368DA0738D4DDE9B4
:101A10000932A2EB0309059BD21A9145A8BF914652
:101A2000B9F1000F35DC4FF0000829EAE97904F13B
:101A30001A0ADDE909239B1AA3EB090343457FF743
:101A400079AF0123524631462846B84701303FF46A
:101A5000AAAE08F10108ECE7134631464246284693
:101A6000B8470130C0D19EE6012331462846059291
:101A7000B84701303FF497AE059A0BF1010BB9E777
:101A800018EE103A524631462846B8470130BED1CA
:101A900089E6059A4B46424431462846B84701300C
:101AA000C1D180E60A9A012A01DCDB073AD501237D
:101AB000424631462846B84701303FF474AE18EE2E
:101AC000103A524631462846B84701303FF46BAED3
:101AD000D4E9120100220023DDF828A0FEF7FCFF64
:101AE000D8B90AF1FF3308F1010231462846B84758
:101AF00001300ED157E60123524631462846B847F9
:101B000001303FF450AE08F101080A9B013B434508
:101B1000F1DC4B4604F15002DAE64FF0000804F124
:101B20001A0AF2E701234246DFE701234A4631461B
:101B30002846B84701303FF436AE08F10108E368A3
:101B40000B995B1A4345F0DCF8E64FF0000804F10E
:101B50001909F4E72DE9F047164699468A680B699A
:101B6000DDF820809342B8BF1346336091F84320DC
:101B700007460C460AB1013333602368990642BF19
:101B8000336802333360256815F0060506D104F189
:101B9000190AE36832689B1AAB4226DC94F84320AA
:101BA000131E226818BF012392062BD404F14302AE
:101BB00049463846C04701301ED02368226903F0E9
:101BC0000603042B02BFE5683368ED1AA3680CBF57
:101BD00025EAE57500259342C4BF9B1AED1800263F
:101BE0001A34B5421AD1002008E001235246494672
:101BF0003846C047013003D14FF0FF30BDE8F087D1
:101C00000135C6E7E1185A1C302081F84300224410
:101C100094F8451082F843100233C7E701232246A7
:101C200049463846C0470130E6D00136D9E70000C2
:101C30002DE9FF470F7E0C9D782F914680460C467C
:101C40009A4601F1430207D8622F0AD8002F00F00C
:101C5000D480582F00F0C08004F1420584F842700F
:101C60003AE0A7F16303152BF6D801A151F823F050
:101C7000C91C0008DD1C0008591C0008591C00087C
:101C8000591C0008591C0008DD1C0008591C0008DC
:101C9000591C0008591C0008591C0008E11D0008C7
:101CA000091D00089B1D0008591C0008591C00084C
:101CB000031E0008591C0008091D0008591C0008D3
:101CC000591C0008A31D00082B681A1D1B682A60F8
:101CD00004F1420584F8423001239FE020682B681C
:101CE000070603F10401296001D51E6803E04606DA
:101CF000FBD5B3F90060002E03DA2D23764284F879
:101D000043305A480A2312E02B682068191D2960C5
:101D1000050601D51E6802E04106FBD51E88534822
:101D20006F2F0CBF08230A23002184F84310656835
:101D3000A560002DA2BF216821F0040121600EB929
:101D4000002D4BD01546B6FBF3F103FB1167C75DC1
:101D500005F8017D3746BB420E46F4D9082B0BD15E
:101D60002368DE0708D5236961689942DEBF302306
:101D700005F8013C05F1FF35521B2261CDF800A0AA
:101D80004B4603AA21464046FFF7E4FE01304AD104
:101D90004FF0FF3004B0BDE8F087236843F0200324
:101DA00023603348782784F84570236829681F0624
:101DB00051F8046B02D45F0648BFB6B2DF0748BFD4
:101DC00043F02003296048BF23601EB9236823F035
:101DD000200323601023A7E72448E4E71546BDE766
:101DE0002B6826686169181D286035061B6801D5B7
:101DF000196002E07006FBD51980002323611546A7
:101E0000BCE72B681A1D2A601D68626800212846FD
:101E1000FEF7E6F908B1401B6060636823610023A8
:101E200084F84330AAE723692A4649464046D0470A
:101E30000130ADD023689B0713D4E068039B984220
:101E4000B8BF1846A6E70123324649464046D04768
:101E500001309DD00135E36803995B1AAB42F2DC97
:101E6000EBE7002504F11906F5E700BF493F00083C
:101E70005A3F0008002310B50446C0E90033C0E90A
:101E80000433836081814366C281836119460822DD
:101E90005C3000F089F90D4B63620D4BA3620D4B72
:101EA000E3620D4B23630D4B24629C4206D003F189
:101EB0006802944202D0D0339C4205D104F158000C
:101EC000BDE8104000F0FCB910BD00BFF91F0008CC
:101ED0001B20000853200008772000082C02002057
:101EE000024A0349034800F069B800BF2C000020F3
:101EF000393B00083800002041680C4B994210B56E
:101F0000044601D001F018FEA168094B994202D0A5
:101F1000204601F011FEE168064B994204D02046AC
:101F2000BDE8104001F008BE10BD00BF2C0200202B
:101F300094020020FC02002010B50B4B0B4C0C4A05
:101F40001A60204600220421FFF794FF04F1680084
:101F500001220921FFF78EFF04F1D0000222BDE823
:101F600010401221FFF786BF640300202C020020DE
:101F7000E11E0008014800F0A4B900BF6D03002075
:101F8000014800F09FB900BF6D03002010B5044662
:101F9000FFF7F0FF236A1BB1BDE81040FFF7F0BF69
:101FA000044B2362044B1B68002BF5D1FFF7C4FFE1
:101FB000F2E700BFF91E0008640300202DE9F84392
:101FC0000746884614460026D4E90195B9F101096F
:101FD00005D52468002CF7D13046BDE8F883AB89DD
:101FE000012B07D9B5F90E30013303D02946384605
:101FF000C04706436835E9E710B50C46B1F90E1045
:1020000000F000F90028ABBF636DA3891B1823F40F
:102010008053ACBF6365A38110BD2DE9F0411F461D
:102020008B89DB0505460C46164605D5B1F90E1021
:102030000223002200F0D4F8A389B4F90E1023F48F
:102040008053A38132463B462846BDE8F04100F06C
:10205000FBB810B50C46B1F90E1000F0C1F8431CE6
:10206000A38915BF606523F4805343F48053A38193
:1020700018BFA38110BDB1F90E1000F0A1B8F8B5DA
:102080000E461446054618B1036A0BB9FFF77EFFEA
:10209000A369A360A3891A0725D523691BB3236805
:1020A0002269981A6369F6B28342374604DC2146F6
:1020B000284601F041FDE0B9A368013BA360236815
:1020C0005A1C22601E706269431C9A4204D0A38984
:1020D000DB0706D50A2E04D12146284601F02CFD47
:1020E00038B93846F8BD2146284600F005F80028E2
:1020F000D5D04FF0FF37F4E738B52A4B05461868BE
:102100000C4618B1036A0BB9FFF740FFA389B4F975
:102110000C20180722D4D90607D409232B6042F0DB
:102120004003A3814FF0FF3034E0580712D5616BB4
:1021300041B104F14403994202D0284600F06AFFFD
:1021400000236363A38923F02403A3810023636036
:1021500023692360A38943F00803A38123694BB952
:10216000A38903F42073B3F5007F03D021462846EA
:1021700001F042FDA089B4F90C2010F001030AD04F
:102180000023A36063695B42A361236943B910F034
:102190008000C4D138BD810758BF6369A360F4E7EC
:1021A0000020F7E78400002002440346934200D158
:1021B000704703F8011BF9E70048704778010020D9
:1021C00038B5064D0023044608462B60FFF791F80A
:1021D000431C02D12B6803B1236038BD6803002083
:1021E00038B5074D04460846114600222A601A46B3
:1021F000FFF7A6F8431C02D12B6803B1236038BD5A
:102200006803002038B5074D0446084611460022F1
:102210002A601A46FFF734F8431C02D12B6803B139
:10222000236038BD6803002038B5064D00230446FE
:1022300008462B60FFF792F8431C02D12B6803B1CC
:10224000236038BD6803002038B5074D04460846B2
:10225000114600222A601A46FFF72FF8431C02D1CC
:102260002B6803B1236038BD68030020014B186858
:10227000704700BF8400002070B50D4D0D4C641BED
:10228000A4100026A64209D10B4D0C4C01F092FD82
:10229000641BA4100026A64205D170BD55F8043B6E
:1022A00098470136EEE755F8043B98470136F2E7C8
:1022B000A8410008A8410008A8410008AC41000856
:1022C0007047704770470A44914200F1FF3300D1D4
:1022D000704710B511F8014B03F8014F9142F9D145
:1022E00010BD00001FB514461A46094B1B68054671
:1022F000D8684CB1074B0091CDE9013406492B4613
:1023000001F042FC01F0D6FC044B1C46F3E700BF91
:10231000840000206B3F0008783F0008A63F0008BB
:102320002DE9F74F03690C69A34207467EDB013CA8
:1023300001F1140800F1140505EB8403019358F82A
:10234000243055F8242001339A424FEA840B08EBDD
:102350008409B2FBF3F631D34FF0000E4046AC4691
:10236000F24650F8042B93B206FB03E34FEA124EF9
:102370001A0C9BB2AAEB0303DCF800A013FA8AF351
:1023800006FB0E220093009B4FEA124E92B2C2EB64
:102390001A4202EB2342BDF80030814543EA024372
:1023A0004CF8043B4FEA224ADBD255F80B302BB9EC
:1023B000019B043B9D421A462CD33C61384601F0F8
:1023C000F1F8002822DB01362946002058F8042BBA
:1023D000D1F800C093B2C31A120C13FA8CF3C2EBFB
:1023E0001C4202EB23429BB243EA0243C14541F83F
:1023F000043B4FEA2240E9D255F8242005EB840340
:1024000022B9043B9D421A460AD33C61304603B0D0
:10241000BDE8F08F1268043B002ACED1013CC9E729
:102420001268043B002AF0D1013CEBE70020EEE704
:102430002DE9F04F2DED048BC56993B08DED020BA6
:1024400057EC106BDDF88080079104460A920D93DB
:1024500075B91020FEF7F4FF0246E06120B9AE4BDB
:10246000EF21AE48FFF73EFFC0E901550560C560AA
:10247000E369196851B15A684A60012393408B603F
:10248000204600F053FEE36900221A603B1EBBBFEA
:1024900023F00043039300230122ACBFC8F80030AF
:1024A000C8F800209E4BDDF80C8033EA08031BD1EE
:1024B0000D9A42F20F731360C8F31303334300F015
:1024C0009385219B63B9974B27E0974B0093083383
:1024D000219A1360009813B0BDEC048BBDE8F08F17
:1024E000904B00930333F3E79DED027B002251EC08
:1024F000170BB0EE478AF0EE678A0023FEF7ECFA7E
:10250000814660B10D9A01231360219B002B00F0DE
:102510006885864B219A1360013B0093DAE710AA85
:1025200011A92046B0EE480AF0EE680A01F0E0F882
:10253000C8F30A558246002D7FD018EE903AC3F3B7
:10254000130343F07F5351EC180B43F44013A5F2EF
:10255000FF35CDF8389019460022754BFDF79CFEEB
:1025600067A3D3E90023FEF74FF867A3D3E900235D
:10257000FDF794FE064628460F46FDF7DBFF64A3F1
:10258000D3E90023FEF740F802460B4630463946B1
:10259000FDF784FE06460F46FEF7E6FA0022834664
:1025A000002330463946FEF7A1FA48B15846FDF7F8
:1025B000C1FF32463B46FEF78FFA08B90BF1FF3BED
:1025C000BBF1160F57D85B4B03EBCB03D3E90023CA
:1025D00051EC180BFEF78AFA00284ED00BF1FF3BA6
:1025E00000230C93109B5B1B5A1E45BFC3F10103D4
:1025F000059300230023069254BF05930693BBF175
:10260000000F3CDB069BCDF82CB05B440693002307
:102610000893079B092B68D8052BC4BF043B07937D
:10262000079BA3F10203CCBF00250125032B00F279
:102630008580DFE803F02E3B3958DDE910531D4457
:1026400005F23243202BC1BFC3F1400308FA03F85F
:1026500005F2124326FA03F3D6BFC3F1200348EA7A
:10266000030006FA03F0FDF755FF0122A1F1F8730C
:10267000013D0E926FE70123B3E70C90B2E7059B93
:10268000A3EB0B030593CBF10003089300230B93FB
:10269000BFE7002309930A9B002B52DC012301931F
:1026A00004931A460A920BE00123F3E700230993EF
:1026B0000A9B5B4401930133012B0493B8BF0123B0
:1026C000E0690021042202F114069E423DD94160D6
:1026D000204600F0EBFC0090002839D1164B024652
:1026E00040F2AF11BDE60123E1E701250023079386
:1026F00009954FF0FF330193049300221223D1E791
:1027000061436F63A787D23FB3C8608B288AC63FF7
:10271000FB799F501344D33FB43F0008CB3F0008E0
:102720000000F07FB03F0008A73F0008483F0008C6
:102730000000F83FB8400008234000080123099337
:10274000D7E70A9B01930493BAE701315200BAE735
:10275000E369009A1A60049B0E2B00F2A880002DFA
:1027600000F0A580BBF1000F38DDC04B0BF00F026D
:1027700003EBC2031BF4807FD3E900674FEA2B18F9
:1027800019D0BB4B51EC180BD3E90823FEF766F8C0
:10279000CDE9020108F00F080325DFF8D492B8F163
:1027A000000F0AD1DDE9020132463B46FEF756F83A
:1027B000CDE902012BE00225EFE718F0010F08D068
:1027C00030463946D9E90023FDF71EFF013506469C
:1027D0000F464FEA680809F10809E0E700F09F801A
:1027E000CBF10006A14BA24F06F00F0203EBC20390
:1027F000D3E9002351EC180BFDF706FFCDE90201E8
:10280000361100230225002E7ED1002BD0D10C9B47
:10281000DDE90289002B00F08480964B00224046BF
:102820004946FEF763F900287BD0049B002B78D043
:10283000019B002B39DD904B002240464946FDF7B5
:10284000E3FECDE90201019E0BF1FF370135DDE921
:1028500002892846FDF76EFE42464B46FDF7D4FE40
:10286000864B0022FDF71AFDA1F15073CDE902015C
:102870000393002E58D1824B002240464946FDF773
:102880000BFDDDE9022380468946FEF74DF900285D
:1028900040F09682DDE90221404601F100434946BD
:1028A000FEF724F9002840F089828DED028B119B00
:1028B000002BC0F24E81BBF10E0F00F34A816B4B2F
:1028C00003EBCB03D3E900890A9B002B80F2DC8069
:1028D000049B002B00F3D88040F06F82684B0022ED
:1028E00040464946FDF790FEDDE90223FEF712F966
:1028F000049E3746002840F04582009D312305F8AC
:10290000013B0BF1010B41E2F20705D5D7E90023AA
:10291000FDF77AFE013501237610083773E70225AB
:1029200075E7049E5F4692E70099504B9DED027B50
:10293000314402910999B0EE479AF0EE679A03EBA1
:10294000C60353E90223002944D04E490020FDF775
:1029500085FF53EC192BFDF79FFC009D41EC190BF3
:1029600049464046FEF700F90646FDF7E3FD0246FC
:102970000B4640464946FDF78FFC303605F8016BA3
:1029800053EC192B80468946FEF7B0F8002864D135
:1029900042464B4637490020FDF77EFC53EC192B8D
:1029A000FEF7A4F8002840F0B680029B9D423FF459
:1029B0007CAF314B51EC190B0022FDF725FE2E4B5D
:1029C00041EC190B002240464946FDF71DFE8046AA
:1029D0008946C5E751EC170BFDF716FE029B009DDB
:1029E0000F9341EC190B49464046FEF7BDF80646E9
:1029F000FDF7A0FD303602460B4640464946FDF73E
:102A00004BFC05F8016B029B9D42804689464FF0C6
:102A1000000224D11B4B51EC190BFDF73FFC024681
:102A20000B4640464946FEF77FF8002873D153EC29
:102A3000192B14490020FDF72FFC02460B46404697
:102A40004946FEF753F800283FF42FAF0F9D6B1E49
:102A50000F9315F8013C302BF8D0BB464AE0064BEB
:102A6000FDF7D2FD80468946BDE700BFB8400008AB
:102A7000904000080000F03F0000244000001C408F
:102A8000000014400000E03FDDE90267009D42467F
:102A90004B4630463946FDF7E1FEFEF765F80190FA
:102AA000FDF748FD42464B46FDF7AEFD02460B469C
:102AB00030463946FDF7F0FB019E049F303605F89D
:102AC000016B009EAE1BB74202460B4634D1FDF7A8
:102AD000E5FB42464B4606460F46FEF725F8C8B9C9
:102AE00042464B4630463946FDF7F6FF10B1019B92
:102AF000DB070FD45146204600F018FB00230D9A47
:102B00002B700BF101031360219B002B3FF4E2AC0F
:102B10001D60DFE45F462B461D4613F8012D392A60
:102B200006D1009A9A42F7D10099302201370A70F3
:102B30001A7801321A7090E7A34B0022FDF764FD6A
:102B40000022002306460F46FDF7C6FF00289ED050
:102B5000D0E7099A002A00F0CA80079A012A00F3F8
:102B6000AD800E9A002A00F0A58003F23343089E40
:102B7000059D059A1A440592069A01211A44204699
:102B8000069200F089FB074665B1069B002B09DD24
:102B9000AB42059AA8BF2B46D21A0592069AED1AA7
:102BA000D31A0693089BF3B1099B002B00F0A38076
:102BB000002E10DD39463246204600F02DFC5246EC
:102BC00001460746204600F07DFB514680462046E0
:102BD00000F0ACFAC246089B9A1B04D0514620462E
:102BE00000F01AFC82460121204600F055FB0B9BA9
:102BF000002B064640F381801A460146204600F02D
:102C00000BFC079B012B06467ADD4FF00008336969
:102C100006EB8303186900F0F1FAC0F12000069B6F
:102C2000184410F01F0000F09480C0F12003042B22
:102C300040F38580059BC0F11C0003440593069B6F
:102C4000034405440693059B002B05DD51461A46B7
:102C5000204600F03BFC8246069B002B05DD3146FA
:102C60001A46204600F032FC06460C9B002B72D020
:102C70003146504600F096FC00286CDA002351469D
:102C80000A22204600F074FA099B0BF1FF3B8246B2
:102C9000002B00F0B081002339460A22204600F0C4
:102CA00067FA019B002B074600F39680079B022BD7
:102CB00059DC91E0109BC3F1360358E7049B5E1E7C
:102CC000089BB342BFBF089B0B9A0896F31AB4BF88
:102CD000D2189E1B049BBCBF0B920026002BB7BFD3
:102CE000DDE90423DDE904359D1A002341E7089E50
:102CF000059D099F48E7089A70E7079B012B19DC9F
:102D0000029BBBB9039BC3F313039BB9039B23F043
:102D100000431B0D1B0583B1059B01330593069BE7
:102D2000013306934FF001080B9B002B7FF46FAF2C
:102D3000012074E74FF00008F6E79846F4E782D0E8
:102D4000059A1C331A440592069A1A441D440692A9
:102D500079E70346F4E7049B002B37DC079B022B43
:102D600034DD049B0193019B63B931460522204663
:102D700000F0FEF901460646504600F013FC00281C
:102D80003FF7BBAD0A9B009D6FEA030B4FF00008B5
:102D90003146204600F0CAF9002F3FF4ABAEB8F13F
:102DA000000F05D0B84503D04146204600F0BEF9DB
:102DB0003946204600F0BAF99CE600263746E1E79E
:102DC000BB46374699E500BF00002440099B002B15
:102DD00000F0C880049B0193002D05DD39462A468A
:102DE000204600F073FB0746B8F1000F5BD079680E
:102DF000204600F05BF9054628B9834B024640F2B5
:102E0000EF21FFF72EBB3A690232920007F10C0165
:102E10000C30FFF758FA01222946204600F056FBF5
:102E2000009B01330493DDE9002313440893029BC4
:102E300003F00103B84606930746049B3146013B65
:102E400050460193FFF76CFA4146029000F13009B9
:102E5000504600F0A7FB3A4605903146204600F068
:102E6000BDFBC268054602BB0146504600F09AFB16
:102E7000024629462046099200F058F9079B099A14
:102E8000049D43EA0201069B194310D1B9F1390FA1
:102E900029D0059B002B02DD029B03F13109019B28
:102EA00083F8009074E73846BAE70122E1E7059B12
:102EB000002B04DB07990B4306990B4320D1002A12
:102EC000EDDD51460122204600F000FB31468246EE
:102ED00000F068FB002803DCE1D119F0010FDED01F
:102EE000B9F1390FD8D1019A392313702B461D46F9
:102EF000013B15F8012C392A6CD001321A7047E7D2
:102F0000002A07DDB9F1390FEDD0019A09F101036B
:102F100013703DE7049B089A03F8019C934243D049
:102F2000514600230A22204600F022F9B845824685
:102F30004FF000034FF00A024146204607D100F04F
:102F400017F980460746049B0133049375E700F0A8
:102F50000FF93946804600230A22204600F008F97E
:102F60000746F0E7049B0193009D31465046FFF76A
:102F7000D7F900F13009009B05F8019BEA1A019B83
:102F8000934207DD514600230A22204600F0F0F864
:102F90008246EAE7019B002BC8BF1D46009BD8BFB5
:102FA00001251D444FF0000851460122204600F043
:102FB0008DFA3146824600F0F5FA002896DC02D1FF
:102FC00019F0010F92D12B461D4613F8012D302A1E
:102FD000FAD0DDE6009A9A4289D10BF1010B312338
:102FE00096E70A4BFFF799BA219B002B7FF46DAA55
:102FF000074BFFF792BA019B002BB5DC079B022B16
:103000003FF7B1AEB0E700BF23400008473F0008DC
:10301000A73F000837B5002944D051F8043C01907F
:10302000002BA1F10404B8BFE418FEF7B1FA1E4A60
:103030000198136833B96360146003B0BDE8304091
:10304000FEF7ACBAA34208D9256861198B4201BFCB
:1030500019685B6849192160EDE71A465B680BB196
:10306000A342FAD911685518A5420BD1246821440E
:103070005418A3421160E0D11C685B6853600C4493
:103080001460DAE702D90C230360D6E725686119DA
:103090008B4204BF19685B68636004BF49192160F3
:1030A0005460CAE703B030BD2402002070B5C66981
:1030B00004460D4676B91020FEF7C2F90246E061DB
:1030C00020B9184B18486B21FFF70CF9C0E90166CD
:1030D0000660C660E669F36883B1E369DB6853F8AC
:1030E0002500B8B9012101FA05F6721D92002046AB
:1030F00000F0E7FD60B1C0E901560EE02122042195
:10310000204600F0DEFDE369F060DB68002BE4D1CF
:10311000002070BD026843F825200023C0E9033376
:10312000F7E700BFB43F00083440000870B5C66937
:1031300005460C4676B91020FEF782F90246E86192
:1031400020B9094B09488F21FFF7CCF8C0E9016687
:103150000660C6603CB1EB696268DB6853F8221018
:10316000216043F8224070BDB43F0008344000089D
:103170002DE9F0410D6907460C461E4601F1140C7D
:103180000020DCF8003099B202FB01611E0C0B0C30
:1031900002FB063389B2013001EB034185424CF852
:1031A000041B4FEA1346ECDC0EB3A368AB4219DCF8
:1031B000616838460131FFF779FF804628B9024639
:1031C0000C4B0D48BA21FFF78DF82269023204F149
:1031D0000C0192000C30FFF776F821463846FFF7D5
:1031E000A5FF444604EB850301355E612561204659
:1031F000BDE8F0812340000834400008030C1B04A4
:10320000D3B90004102310F07F4F04BF000208332D
:1032100010F0704F04BF0001043310F0404F04BFA2
:1032200080000233002805DB10F0804F03F101031A
:1032300008BF2023184670470023E4E7036813F013
:1032400007020CD0D90722D49A0749BF5B089B0814
:10325000036001225CBF036002221046704799B2EE
:1032600009B91B0C1022D9B209B908321B0A190777
:1032700004BF1B090432990704BF9B080232D90717
:1032800003D45B0802F1010203D00360E5E70022EA
:10329000E3E72022E1E7000010B50C460121FFF72B
:1032A00005FF024628B9054B054840F24511FFF7D6
:1032B00019F801234461036110BD00BF23400008D9
:1032C000344000082DE9F04F91460A69D9F81030D2
:1032D0009A42B8BF0B460C46BCBF4C46994627697C
:1032E000D9F810A0A368616807EB0A06B34285B05D
:1032F000B8BF0131FFF7DAFE30B90246444B45480A
:103300004FF4B171FEF7EEFF00F1140505EB8608EE
:103310002B460022434521D304F1140303EB870716
:1033200009F1140303EB8A0202923A1B153A22F0C8
:103330000302043204F115018F4238BF04220192C6
:10334000029A03939A420CD8002E03DD58F8043DEC
:10335000002B5BD0066105B0BDE8F08F43F8042B6D
:10336000D8E7B3F800A0BAF1000F24D004F1140E8E
:10337000A9464FF0000C5EF8042BD9F800101FFA94
:1033800082FB89B20AFB0B114FEA124BD9F80020DD
:1033900061444FEA124C0AFB0BC202EB114289B2A4
:1033A00041EA0241774549F8041B4FEA124CE2D842
:1033B000019A45F802C0039AB2F802900433B9F1B9
:1033C000000F21D0296804F1140CAE464FF0000A1A
:1033D000BCF800B0BEF8022009FB0B22524489B2AF
:1033E00041EA02414EF8041B5CF8041B4FEA114A03
:1033F000BEF8001009FB0A1101EB124167454FEAC4
:10340000114AE5D8019AA950043599E7013E9BE796
:1034100023400008344000082DE9F843154612F017
:10342000030206460F4607D0254C013A002354F804
:103430002220FFF79DFE0746AD103DD0F4697CB910
:103440001020FDF7FDFF0246F06128B91D4B1E4814
:1034500040F2B311FEF746FFC0E901440460C460C6
:10346000D6F81C80D8F808404CB940F2712130469B
:10347000FFF712FF0023C8F80800044603604FF06E
:103480000009EB070AD5394622463046FFF71AFFF6
:10349000394680463046FFF749FE47466D100BD04F
:1034A000206838B9224621463046FFF70BFF2060DE
:1034B000C0F800900446E4E73846BDE8F88300BF52
:1034C00080410008B43F0008344000082DE9F0476F
:1034D0000C464968236903EB6218A36807469146C6
:1034E0004FEA621A08F10106B3420BDB3846FFF7D8
:1034F000DDFD054648B90246284B29484FF4EF71D7
:10350000FEF7F0FE01315B00EEE7002300F114014D
:1035100000F110021846534533DB20692AEAEA7AA3
:1035200004F1140319F01F0901EB8A0103EB800C6D
:103530002BD0C9F1200E8A460022186800FA09F043
:1035400010434AF8040B53F8042B9C4522FA0EF260
:10355000F3D8ACEB0403153B23F00303043304F16D
:103560001500844538BF0423CA500AB108F1020689
:10357000013E38462E612146FFF7D8FD2846BDE8BA
:10358000F08742F8040F0133C5E7043953F8042BE0
:1035900041F8042F9C45F9D8EAE700BF2340000812
:1035A0003440000830B502690C69121B0ED100F1DD
:1035B0001403143103EB840001EB840150F8045D23
:1035C00051F8044DA54203D005D30122104630BD69
:1035D0008342F3D3FAE74FF0FF32F7E72DE9F84FD4
:1035E0000C460646114620469046FFF7DBFF051EB7
:1035F00010D129463046FFF759FD30B93A4B024603
:1036000040F237213948FEF76DFE0123C0E9043549
:10361000BDE8F88FA4BF4346A0463046D8F8041052
:10362000A6BF1C4600250125FFF740FD20B92E4B03
:10363000024640F24521E5E7D8F810702669C560DA
:1036400004F1140908F1140500F1140E05EB870CC0
:1036500009EB860608F11002F246002159F8043BF6
:1036600052F804BF11FA8BF899B21B0CA8EB0108B1
:10367000C3EB1B4303EB28431FFA88F819144E458C
:1036800048EA03434AF8043BE8D8331B153B23F0D0
:10369000030304331534A64238BF04231D44734486
:1036A0009E462E4666450ED30CF10302521B22F0B5
:1036B0000302033DAC4538BF0022134453F8042DE8
:1036C0007AB10761A4E756F8048B11FA88F2141452
:1036D00004EB184492B242EA04424EF8042B21143F
:1036E000E0E7013FEAE700BF23400008344000085C
:1036F0002DE9F7430F46012159EC108B1646FFF7D1
:10370000D5FC044630B90246244B254840F20F311F
:10371000FEF7E8FDC9F30A55C9F313032DBB019366
:10372000B8F1000326D068460093FFF787FDDDE976
:103730000012E8B1C0F1200302FA03F30B43C240C8
:1037400063610192019BA361002B14BF022201223D
:103750002261BDB1A5F2334505443D60C0F135009D
:103760003060204603B0BDE8F08343F48013D6E711
:103770006161E7E701A8FFF761FD019B636120300C
:103780000122E5E704EB8203A0F2324038601869B9
:10379000FFF734FDC0EB4210E2E700BF2340000812
:1037A000344000089368013B002B10B4936008DAA2
:1037B0009469A34201DB0A2903D15DF8044BFEF7AB
:1037C0005EBC1368581C1060197008465DF8044B05
:1037D0007047F8B506460F461446D518AC4201D1DD
:1037E000002007E014F8011B3A463046FFF7DAFFE5
:1037F000431CF3D1F8BD00002DE9F04F0D469DB0FC
:1038000014469846064618B1036A0BB9FEF7BEFB8C
:103810006B6ED90705D4AB899A0502D4A86DFEF763
:1038200050FDAB891B0701D52B699BB92946304652
:10383000FEF762FC70B16B6EDC0704D54FF0FF3011
:103840001DB0BDE8F08FAB899805F7D4A86DFEF7E1
:1038500039FDF3E70023099320238DF82930CDF8B3
:103860000C803023DFF8B0818DF82A304FF0010949
:1038700023469A4613F8012B0AB1252AF9D1BAEB4F
:10388000040B0BD05B46224629463046FFF7A1FFCA
:10389000013000F0A980099A5A4409929AF8003040
:1038A000002B00F0A18000234FF0FF32CDE905236B
:1038B0000AF1010A049307938DF853301A93544682
:1038C000052214F8011B5448FCF78AFC049AD8B965
:1038D000D10644BF20238DF85330130744BF2B2358
:1038E0008DF853309AF800302A2B15D0079A544699
:1038F00000204FF00A0C214611F8013B303B092B08
:103900004DD9B0B1079214E0A0EB080309FA03F314
:1039100013430493A246D2E7039B191D1B6803912E
:10392000002BBBBF5B4242F0020207930793B8BF74
:10393000049223782E2B0CD163782A2B34D1039B4D
:103940001A1D1B680392002BB8BF4FF0FF330234DF
:103950000593DFF8D4A0217803225046FCF740FC01
:1039600038B1049BA0EB0A0040228240134301348B
:10397000049314F8011B29488DF828100622FCF73F
:103980002FFC00283FD0264B1BBB039B073323F0A3
:10399000070308330393099B3B44099368E70CFB37
:1039A00002320C460120A6E7002301340593194694
:1039B0004FF00A0C204610F8012B303A092A03D99F
:1039C000002BC6D00591C4E70CFB0121044601235E
:1039D000F0E703AB00932A46124B04A93046FDF7EB
:1039E00083FE0746781CD6D16B6ED90705D4AB8908
:1039F0009A0502D4A86DFEF765FCAB895B063FF51E
:103A00001DAF09981CE703AB00932A46054B04A998
:103A10003046FEF70DF9E4E78C41000896410008B6
:103A2000E9160008D3370008924100088A892DE979
:103A3000F041054610070C4658D44B68002B05DCB6
:103A40000B6C002B02DC0020BDE8F081E66A002E42
:103A5000F9D0002312F480522F68216A2B6032D0F3
:103A6000606DA3895A0705D56368C01A636B0BB1F3
:103A7000236CC01A00230246E66A216A2846B04732
:103A8000431CA38906D129681D292BD8294A0A413C
:103A9000D60727D400226260D9042269226004D5A7
:103AA000421C01D12B6803B96065616B2F6000294E
:103AB000C9D004F14403994202D02846FFF7AAFA7C
:103AC00000206063C0E701232846B047411CC8D1ED
:103AD0002B68002BC5D01D2B01D0162B01D12F60D8
:103AE000B1E7A38943F04003A381ADE70F69002F3D
:103AF000A9D093070E6808BF4B690F6018BF002359
:103B0000A6EB07088B60B8F1000F9CDD216AA66A5E
:103B100043463A462846B047002806DCA38943F0CE
:103B20004003A3814FF0FF308EE70744A8EB000865
:103B3000E9E700BFFEFFBFDF38B50B6905460C465D
:103B400013B90025284638BD18B1036A0BB9FEF732
:103B50001DFAB4F90C30002BF3D0626ED00704D4F8
:103B6000990502D4A06DFEF7ACFB28462146FFF76D
:103B70005DFF636EDA070546E4D4A3899B05E1D4B3
:103B8000A06DFEF79FFBDDE70EB403B5014603AB66
:103B9000054853F8042B00680193FFF72DFE02B08F
:103BA0005DF804EB03B070478400002070B50C464C
:103BB000B1F90E10002996B015461E460DDAA389FC
:103BC00013F0800F4FF000010CBF4FF480634023CF
:103BD000002031602B6016B070BD6A4600F048F8D6
:103BE0000028ECDB019901F47041A1F50053594222
:103BF00059414FF48063EBE78B8973B59D07064607
:103C00000C4607D504F14703236023610123636158
:103C100002B070BD01AB6A46FFF7C8FF00990546C8
:103C20003046FDF735FC48B9B4F90C309A05EFD4AD
:103C300023F0030343F00203A381E3E7A389206099
:103C400043F08003A381009B6361019B20615BB112
:103C5000B4F90E10304600F01DF828B1A38923F006
:103C6000030343F00103A381A3891D43A581CFE78B
:103C700038B5074D00230446084611462B60FDF772
:103C800044FB431C02D12B6803B1236038BD00BF45
:103C90006803002038B5064D0023044608462B6013
:103CA000FDF743FB431C02D12B6803B1236038BDF1
:103CB0006803002008B5062000F060F80120FDF739
:103CC000D5FA37B5A1FB02244CB911460192FDF794
:103CD000DFFB019A054630B9284603B030BD0C22FF
:103CE00002600025F8E72146FEF75EFAF4E782B0AD
:103CF00001B901A942B14BB113780B601278101EC3
:103D000018BF012002B070471046FBE76FF00100BA
:103D1000F8E749B1FF2A85BF8A2303600A704FF094
:103D2000FF3098BF01207047084670471F2938B5FB
:103D300004460D4604D9162303604FF0FF3038BD0A
:103D4000C26B12B152F821304BB9204600F030F866
:103D50002A4601462046BDE8384000F017B8012B3E
:103D60000AD0591C03D1162303600120E7E7002481
:103D700042F82540284698470020E0E7024B0146DC
:103D80001868FFF7D3BF00BF8400002038B5074D87
:103D900000230446084611462B60FDF757FA431CE2
:103DA00002D12B6803B1236038BD00BF6803002037
:103DB000FDF744BAF8B500BFF8BC08BC9E46704792
:0C3DC000F8B500BFF8BC08BC9E46704778
:103DD0000202020202020202486F6C61204D756EFF
:103DE000646F2064657364652053544D33322043FF
:103DF0006F72746578204D340D000000596166685B
:103E0000657273204D656E646F7A6120432E0D00DC
:103E100046656220203320323032340031373A3167
:103E2000353A3436000000002573202025730D0A32
:103E3000000000003300002020202020202020202F
:103E4000282828282820202020202020202020204A
:103E5000202020202020208810101010101010107A
:103E600010101010101010040404040404040404BE
:103E70000410101010101010414141414141010146
:103E80000101010101010101010101010101010122
:103E90000101101010101010424242424242020230
:103EA00002020202020202020202020202020202F2
:103EB000020210101010200000000000000000009E
:103EC00000000000000000000000000000000000F2
:103ED00000000000000000000000000000000000E2
:103EE00000000000000000000000000000000000D2
:103EF00000000000000000000000000000000000C2
:103F000000000000000000000000000000000000B1
:103F100000000000000000000000000000000000A1
:103F20000000000000000000000000000000000091
:103F300000000000000000494E4600696E66004E19
:103F4000414E006E616E0030003031323334353610
:103F500037383941424344454600303132333435F5
:103F600036373839616263646566002C2066756E89
:103F70006374696F6E3A2000617373657274696F60
:103F80006E2022257322206661696C65643A206682
:103F9000696C6520222573222C206C696E652025B2
:103FA00064257325730A00496E66696E6974790029
:103FB0004E614E005245454E54206D616C6C6F63EE
:103FC00020737563636565646564002F6275696C51
:103FD000642F676E752D746F6F6C732D666F722D05
:103FE00073746D33325F31312E332E72656C312E26
:103FF00032303233303931322D313630302F737226
:10400000632F6E65776C69622F6E65776C69622FBE
:104010006C6962632F7374646C69622F64746F617E
:104020002E630042616C6C6F63207375636365651A
:10403000646564002F6275696C642F676E752D74FA
:104040006F6F6C732D666F722D73746D33325F31C9
:10405000312E332E72656C312E323032333039319D
:10406000322D313630302F7372632F6E65776C6965
:10407000622F6E65776C69622F6C6962632F73744F
:10408000646C69622F6D707265632E6300000000BE
:104090000080E03779C34143176E05B5B5B8934644
:1040A000F5F93FE9034F384D321D30F94877825A10
:1040B0003CBF737FDD4F1575000000000000F03F2E
:1040C00000000000000024400000000000005940F3
:1040D0000000000000408F40000000000088C34046
:1040E00000000000006AF8400000000080842E41BB
:1040F00000000000D01263410000000084D7974107
:104100000000000065CDCD41000000205FA002420C
:10411000000000E876483742000000A2941A6D4281
:10412000000040E59C30A2420000901EC4BCD64274
:1041300000003426F56B0C430080E03779C341431F
:1041400000A0D8855734764300C84E676DC1AB4395
:10415000003D9160E458E143408CB5781DAF1544B3
:1041600050EFE2D6E41A4B4492D54D06CFF080448E
:10417000F64AE1C7022DB544B49DD9794378EA44A3
:1041800005000000190000007D000000232D302BE9
:104190002000686C4C006566674546470043005048
:0841A0004F534958002E0000A6
:0441A800C501000845
:0441AC00A101000865
:1041B000000257353130300000000000B90B000814
:1041C000C70B0008D50B0008E30B0008F10B000833
:1041D0000B0C0008000000000000000000000000C0
:1041E000030000002C020020000000002C02002030
:1041F00094020020FC0200200000000000000000EB
:1042000000000000000000000000000000000000AE
:10421000000000000000000000000000000000009E
:10422000000000000000000000000000000000008E
:1042300000000000380000204300000000000000E3
:10424000000000000000000000000000000000006E
:10425000000000000000000043000000000000001B
:10426000000000000000000000000000000000004E
:1042700000000000000000004300000000000000FB
:10428000000000000000000000000000000000002E
:1042900000000000000000004300000000000000DB
:1042A000000000000000000000000000000000000E
:1042B00000000000000000004300000000000000BB
:1042C00000000000000000000000000000000000EE
:1042D000000000000000000043000000000000009B
:1042E00000000000000000000000000000000000CE
:1042F000000000000000000043000000000000007B
:1043000000000000000000000000000000000000AD
:104310000000000000000000133D0008EF3C000812
:1043200000000000363E0008A5410008A63F000836
:10433000A63F0008A63F0008A63F0008A63F0008C9
:10434000A63F0008A63F0008A63F0008A63F0008B9
:10435000FFFFFFFFFFFFFFFFFFFFFFFFFFFF00006B
:1043600001004153434949000000000000000000E3
:10437000000000000000000000000000000000003D
:1043800000004153434949000000000000000000C4
:10439000000000000000000000000000000000001D
:0443A0000000000019
:04000005080013EDEF
:00000001FF
