:020000040800F2
:1000000000000220F9220008B9200008BF200008E3
:10001000C5200008CB200008D12000080000000007
:10002000000000000000000000000000D7200008D1
:10003000E520000800000000F3200008012100086E
:1000400049230008492300084923000849230008E0
:1000500049230008492300084923000849230008D0
:1000600049230008492300084923000849230008C0
:1000700049230008492300084923000849230008B0
:100080004923000849230008492300080000000014
:1000900000000000000000000000000049230008EC
:1000A0004923000849230008492300084923000880
:1000B0004923000849230008492300084923000870
:1000C0004923000849230008492300084923000860
:1000D00049230008492300080D2100080000000002
:1000E00049230008492300084923000800000000B4
:1000F000000000000000000000000000492300088C
:100100000000000049230008492300084923000893
:1001100000000000000000000000000000000000DF
:100120002121000849230008492300084923000829
:10013000492300080000000000000000000000004B
:10014000000000000000000000000000492300083B
:1001500049230008492300084923000835210008E5
:1001600049230008492300080000000000000000A7
:10017000000000000000000000000000000000007F
:1001800000000000492300080000000000000000FB
:0801900049230008492300087F
:1001A00010B5054C237833B9044B13B10448AFF3B1
:1001B00000800123237010BDD80100200000000042
:1001C00008A8000808B5034B1BB103490348AFF367
:1001D000008008BD00000000DC01002008A8000825
:1001E00001F0FF01102A2BDB10F0070F08D010F8E8
:1001F000013B013A8B422DD010F0070F42B3F6D1EC
:10020000F0B441EA012141EA014122F007047FF004
:1002100000070023F0E80256083C85EA010586EA5B
:10022000010685FA47F5A3FA87F586FA47F6A5FA97
:1002300087F68EB9EED1F0BC01F0FF0102F00702A3
:1002400032B110F8013B013A83EA010313B1F8D14E
:100250000020704701387047002D06BF354603382F
:10026000073815F0010F07D1013015F4807F02BF68
:10027000013015F4C03F0130F0BC0138704700BFB9
:10028000034613F8012B002AFBD1181A01387047D6
:1002900081F0004102E000BF83F0004330B54FEA37
:1002A00041044FEA430594EA050F08BF90EA020FA4
:1002B0001FBF54EA000C55EA020C7FEA645C7FEA37
:1002C000655C00F0E2804FEA5454D4EB5555B8BF5A
:1002D0006D420CDD2C4480EA020281EA030382EACB
:1002E000000083EA010180EA020281EA0303362D5D
:1002F00088BF30BD11F0004F4FEA01314FF4801C30
:100300004CEA113102D0404261EB410113F0004F41
:100310004FEA03334CEA133302D0524263EB4303F8
:1003200094EA050F00F0A780A4F10104D5F1200E96
:100330000DDB02FA0EFC22FA05F2801841F10001F1
:1003400003FA0EF2801843FA05F359410EE0A5F1C5
:1003500020050EF1200E012A03FA0EFC28BF4CF0F6
:10036000020C43FA05F3C01851EBE37101F00045AC
:1003700007D54FF0000EDCF1000C7EEB00006EEBB9
:100380000101B1F5801F1BD3B1F5001F0CD3490843
:100390005FEA30004FEA3C0C04F101044FEA44529A
:1003A00012F5800F80F09A80BCF1004F08BF5FEA21
:1003B000500C50F1000041EB045141EA050130BD01
:1003C0005FEA4C0C404141EB0101013C28BFB1F513
:1003D000801FE9D291F0000F04BF01460020B1FA5E
:1003E00081F308BF2033A3F10B03B3F120020CDA31
:1003F0000C3208DD02F1140CC2F10C0201FA0CF00F
:1004000021FA02F10CE002F11402D8BFC2F1200C73
:1004100001FA02F120FA0CFCDCBF41EA0C01904029
:10042000E41AA2BF01EB0451294330BD6FEA040472
:100430001F3C1CDA0C340EDC04F11404C4F120025D
:1004400020FA04F001FA02F340EA030021FA04F36F
:1004500045EA030130BDC4F10C04C4F1200220FAC6
:1004600002F001FA04F340EA0300294630BD21FA04
:1004700004F0294630BD94F0000F83F4801306BFCA
:1004800081F480110134013D4EE77FEA645C18BFBE
:100490007FEA655C29D094EA050F08BF90EA020F55
:1004A00005D054EA000C04BF1946104630BD91EA4D
:1004B000030F1EBF0021002030BD5FEA545C05D150
:1004C0004000494128BF41F0004130BD14F580048F
:1004D0003CBF01F5801130BD01F0004545F0FE4103
:1004E00041F470014FF0000030BD7FEA645C1ABF38
:1004F000194610467FEA655C1CBF0B46024650EA6F
:10050000013406BF52EA033591EA030F41F400219A
:1005100030BD00BF90F0000F04BF0021704730B520
:100520004FF4806404F132044FF000054FF00001F5
:1005300050E700BF90F0000F04BF0021704730B5B6
:100540004FF4806404F1320410F0004548BF40428B
:100550004FF000013EE700BF42004FEAE2014FEAE0
:1005600031014FEA02701FBF12F07F4393F07F4FBB
:1005700081F06051704732F07F4208BF704793F0BE
:100580007F4F04BF41F40021704730B54FF46074D1
:1005900001F0004521F000411CE700BF50EA0102D4
:1005A00008BF704730B54FF000050AE050EA01027D
:1005B00008BF704730B511F0004502D5404261EBED
:1005C00041014FF4806404F132045FEA915C3FF42E
:1005D000D8AE4FF003025FEADC0C18BF03325FEACB
:1005E000DC0C18BF033202EBDC02C2F1200300FA7C
:1005F00003FC20FA02F001FA03FE40EA0E0021FAA1
:1006000002F11444BDE600BF70B54FF0FF0C4CF48E
:10061000E06C1CEA11541DBF1CEA135594EA0C0F40
:1006200095EA0C0F00F0DEF82C4481EA030621EA7B
:100630004C5123EA4C5350EA013518BF52EA0335B6
:1006400041F4801143F4801338D0A0FB02CE4FF068
:100650000005E1FB02E506F00042E0FB03E54FF098
:100660000006E1FB03569CF0000F18BF4EF0010E90
:10067000A4F1FF04B6F5007F64F5407404D25FEA8C
:100680004E0E6D4146EB060642EAC62141EA55513F
:100690004FEAC52040EA5E504FEACE2EB4F1FD0C81
:1006A00088BFBCF5E06F1ED8BEF1004F08BF5FEAFF
:1006B000500E50F1000041EB045170BD06F00046B1
:1006C00046EA010140EA020081EA0301B4EB5C045E
:1006D000C2BFD4EB0C0541EA045170BD41F4801156
:1006E0004FF0000E013C00F3AB8014F1360FDEBF7B
:1006F000002001F0004170BDC4F10004203C35DA57
:100700000C341BDC04F11404C4F1200500FA05F3D9
:1007100020FA04F001FA05F240EA020001F000427A
:1007200021F0004110EBD37021FA04F642EB0601F0
:100730005EEA430E08BF20EAD37070BDC4F10C041A
:10074000C4F1200500FA04F320FA05F001FA04F2DE
:1007500040EA020001F0004110EBD37041F10001CA
:100760005EEA430E08BF20EAD37070BDC4F12005D5
:1007700000FA05F24EEA020E20FA04F301FA05F23D
:1007800043EA020321FA04F001F0004121FA04F2E5
:1007900020EA020000EBD3705EEA430E08BF20EAB5
:1007A000D37070BD94F0000F0FD101F000464000EF
:1007B00041EB010111F4801F08BF013CF7D041EA71
:1007C000060195F0000F18BF704703F00046520075
:1007D00043EB030313F4801F08BF013DF7D043EA46
:1007E0000603704794EA0C0F0CEA135518BF95EAFC
:1007F0000C0F0CD050EA410618BF52EA4306D1D183
:1008000081EA030101F000414FF0000070BD50EAA1
:10081000410606BF1046194652EA430619D094EA2B
:100820000C0F02D150EA013613D195EA0C0F05D115
:1008300052EA03361CBF104619460AD181EA030169
:1008400001F0004141F0FE4141F470014FF0000021
:1008500070BD41F0FE4141F4780170BD70B54FF0BC
:10086000FF0C4CF4E06C1CEA11541DBF1CEA13553C
:1008700094EA0C0F95EA0C0F00F0A7F8A4EB05041E
:1008800081EA030E52EA03354FEA013100F0888015
:100890004FEA03334FF0805545EA131343EA1263DE
:1008A0004FEA022245EA111545EA10654FEA002693
:1008B0000EF000419D4208BF964244F1FD0404F54C
:1008C000407402D25B084FEA3202B61A65EB0305A8
:1008D0005B084FEA32024FF480104FF4002CB6EB65
:1008E000020E75EB030E22BFB61A754640EA0C00E5
:1008F0005B084FEA3202B6EB020E75EB030E22BF25
:10090000B61A754640EA5C005B084FEA3202B6EB65
:10091000020E75EB030E22BFB61A754640EA9C0024
:100920005B084FEA3202B6EB020E75EB030E22BFF4
:10093000B61A754640EADC0055EA060E18D04FEAB2
:10094000051545EA16754FEA06164FEAC30343EA52
:1009500052734FEAC2025FEA1C1CC0D111F4801F1F
:100960000BD141EA00014FF000004FF0004CB6E718
:1009700011F4801F04BF01430020B4F1FD0C88BFB7
:10098000BCF5E06F3FF6AFAEB5EB030C04BFB6EBC2
:10099000020C5FEA500C50F1000041EB045170BDB5
:1009A0000EF0004E4EEA113114EB5C04C2BFD4EBE2
:1009B0000C0541EA045170BD41F480114FF0000E66
:1009C000013C90E645EA060E8DE60CEA135594EAE2
:1009D0000C0F08BF95EA0C0F3FF43BAF94EA0C0FE5
:1009E0000AD150EA01347FF434AF95EA0C0F7FF45A
:1009F00025AF104619462CE795EA0C0F06D152EAAE
:100A000003353FF4FDAE1046194622E750EA410691
:100A100018BF52EA43067FF4C5AE50EA41047FF4A2
:100A20000DAF52EA43057FF4EBAE12E74FF0FF3C07
:100A300006E000BF4FF0010C02E000BF4FF0010CD8
:100A40004DF804CD4FEA410C7FEA6C5C4FEA430C51
:100A500018BF7FEA6C5C1BD001B050EA410C0CBFA0
:100A600052EA430C91EA030F02BF90EA020F002002
:100A7000704710F1000F91EA030F58BF994208BF69
:100A800090422CBFD8176FEAE37040F00100704726
:100A90004FEA410C7FEA6C5C02D150EA013C07D17D
:100AA0004FEA430C7FEA6C5CD6D152EA033CD3D0C8
:100AB0005DF8040B704700BF8446104662468C46C2
:100AC0001946634600E000BF01B5FFF7B7FF0028F5
:100AD00048BF10F1000F01BD4DF808EDFFF7F4FF1E
:100AE0000CBF012000205DF808FB00BF4DF808EDA9
:100AF000FFF7EAFF34BF012000205DF808FB00BFCC
:100B00004DF808EDFFF7E0FF94BF012000205DF8ED
:100B100008FB00BF4DF808EDFFF7CEFF94BF0120A2
:100B200000205DF808FB00BF4DF808EDFFF7C4FF9B
:100B300034BF012000205DF808FB00BF4FEA410CE4
:100B40007FEA6C5C02D150EA013C0AD14FEA430CC7
:100B50007FEA6C5C02D152EA033C02D14FF0000004
:100B600070474FF0010070474FEA410212F5001242
:100B700015D211D56FF47873B3EB625212D94FEAE4
:100B8000C12343F0004343EA505311F0004F23FACE
:100B900002F018BF404270474FF00000704750EA23
:100BA000013005D111F0004008BF6FF000407047E0
:100BB0004FF00000704700BF4A0011D212F500123A
:100BC00011D20DD56FF47873B3EB62520ED44FEAA5
:100BD000C12343F0004343EA505323FA02F0704725
:100BE0004FF00000704750EA013002D14FF0FF3063
:100BF00070474FF0000070474FEA4102B2F1E04306
:100C000024BFB3F5001CDCF1FE5C0DD901F0004CF3
:100C10004FEAC0024CEA5070B2F1004F40EB830043
:100C200008BF20F00100704711F0804F21D113F16F
:100C30003872BCBF01F00040704741F480114FEAA8
:100C40005252C2F11802C2F1200C10FA0CF320FA31
:100C500002F018BF40F001004FEAC1234FEAD3234E
:100C600003FA0CFC40EA0C0023FA02F34FEA4303B8
:100C7000CCE77FEA625307D150EA01331EBF4FF041
:100C8000FE4040F44000704701F0004040F0FE405C
:100C900040F40000704700BF53B94AB9002908BFAB
:100CA00000281CBF4FF0FF314FF0FF3000F0A6B915
:100CB000ADF1080C6DE904CE00F03CF8DDF804E07D
:100CC000DDE9022304B0704738B500220023044652
:100CD0000D46FFF70BFF28B920462946BDE83840EE
:100CE00000F00AB8204605F1004100F005F8404246
:100CF00061EB410138BD00BFD0B50C4B0022064668
:100D00000F46FFF781FCFFF757FF0446FFF702FC91
:100D1000074B0022FFF778FC02460B463046394667
:100D2000FFF7BAFAFFF748FF2146D0BD0000F03DBB
:100D30000000F0412DE9F047089E0D4604460F469D
:100D4000002B4AD18A42944665D9B2FA82F343B164
:100D500002FA03FCC3F120029F4020FA02F217437B
:100D60009C404FEA1C4E1FFA8CF5B7FBFEF1220C9B
:100D70000EFB117742EA074201FB05F090420AD9C7
:100D80001CEB020201F1FF3780F01C81904240F21F
:100D9000198102396244121AA4B2B2FBFEF00EFBB2
:100DA000102244EA024400FB05F5A5420AD91CEBD7
:100DB000040400F1FF3280F00781A54240F2048173
:100DC0006444023840EA0140641B00211EB1DC404B
:100DD0000023C6E90043BDE8F0878B4208D9002E06
:100DE00000F0ED800021C6E900050846BDE8F08767
:100DF000B3FA83F1002949D1AB4202D3824200F217
:100E0000F880841A65EB030201201746002EE2D019
:100E1000C6E90047DFE702B9FFDEB2FA82F3002B32
:100E200040F090808A1A4FEA1C471FFA8CFE01217D
:100E3000B2FBF7F507FB1520220C42EA00420EFB3D
:100E400005F0904208D91CEB020205F1FF3802D2EE
:100E5000904200F2CB804546121AA4B2B2FBF7F0E2
:100E600007FB102244EA02440EFB00FEA64508D907
:100E70001CEB040400F1FF3202D2A64500F2BB8055
:100E80001046A4EB0E0440EA05409FE7C1F120079D
:100E90008B4022FA07FC4CEA030C05FA01F420FA15
:100EA00007F3FD404FEA1C492343B5FBF9F81FFA4D
:100EB0008CFE09FB18551C0C44EA054408FB0EF592
:100EC000A54202FA01F200FA01F00BD91CEB04046E
:100ED00008F1FF3A80F08880A54240F28580A8F1B1
:100EE00002086444641B9DB2B4FBF9F309FB13448C
:100EF00045EA044403FB0EFEA64508D91CEB040496
:100F000003F1FF356CD2A6456AD9023B644443EA3B
:100F10000843A3FB0295A4EB0E04AC42C846AE46C0
:100F200056D353D056B1B0EB080264EB0E0404FA6A
:100F300007F7CA40CC401743C6E9007418460021A1
:100F4000BDE8F087C3F1200102FA03FC20FA01F2A8
:100F500025FA01F19D402A434FEA1C471FFA8CFEF7
:100F6000B1FBF7F007FB1015110C41EA054100FB3E
:100F70000EF58D4204FA03F408D91CEB010100F1CF
:100F8000FF382FD28D422DD902386144491B92B2CD
:100F9000B1FBF7F507FB151142EA014205FB0EF123
:100FA000914208D91CEB020205F1FF3816D291429A
:100FB00014D9023D6244521A45EA004138E73146ED
:100FC000304608E73946E6E61046FBE64845A9D232
:100FD000B9EB020865EB0C0E013BA3E74546EAE7D7
:100FE0002B4694E74046D1E7D0467BE7023D62447A
:100FF00032E708460AE76444023842E7704700BF18
:10100000F0B58BB006AF2F48FFF73AF903461A4602
:1010100000212C4805F0BDFF2B492A4805F056FF5A
:101020002848FFF72DF903469AB24FF0FF332549C0
:10103000264804F00DF80023FB730AE0FA7BFB7BE3
:10104000234951F82220234941F82320FB7B013317
:10105000FB73FB7B072BF1D91A48FFF711F9034605
:101060001A460021174805F094FF1A4B1E68194BC9
:101070005B687B60174B9B68164AD2681549096903
:1010800014484069134CA469124DED690595049408
:1010900003900291019200937B6832460E49094801
:1010A00005F014FF0748FFF7EBF803469AB24FF03C
:1010B000FF330449054803F0CBFF00BF1437BD469A
:1010C000F0BD00BFE003002020A800082C03002092
:1010D000BC0300204C04002038A80008F0B58BB0F9
:1010E00006AF2F48FFF7CCF803461A4600212C48DC
:1010F00005F04FFF2B492A4805F0E8FE2848FFF786
:10110000BFF803469AB24FF0FF332549264803F053
:101110009FFF0023FB730AE0FA7BFB7B234951F816
:101120002220234941F82320FB7B0133FB73FB7B07
:10113000072BF1D91A48FFF7A3F803461A460021F6
:10114000174805F026FF1A4B1E68194B5B687B6039
:10115000174B9B68164AD2681549096914484069BB
:10116000134CA469124DED69059504940390029106
:10117000019200937B6832460E49094805F0A6FEAD
:101180000748FFF77DF803469AB24FF0FF33044952
:10119000054803F05DFF00BF1437BD46F0BD00BF3A
:1011A000E003002064A800082C030020BC030020FA
:1011B0006C04002038A80008F0B58BB006AF3248A8
:1011C000FFF75EF803461A4600212F4805F0E1FEBE
:1011D0002E492D4805F07AFE2B48FFF751F80346BB
:1011E0009AB24FF0FF332849294803F031FF00231A
:1011F000FB7310E0FB7B274A52F82320FB7B264938
:1012000051F823301A44FB7B5208244941F823202B
:10121000FB7B0133FB73FB7B072BEBD91A48FFF7F2
:101220002FF803461A460021174805F0B2FE1B4B63
:101230001E681A4B5B687B60184B9B68174AD26824
:101240001649096915484069144CA469134DED69A4
:101250000595049403900291019200937B683246B5
:101260000F49094805F032FE0748FFF709F8034621
:101270009AB24FF0FF330449054803F0E9FE00BF7E
:101280001437BD46F0BD00BFE00300207CA8000875
:101290002C0300204C0400206C0400208C0400204F
:1012A00098A8000880B584B000AF0023FB7317E056
:1012B000FB7B564A52F82320FB7B554951F82330DB
:1012C0009A4205D3FB7B534A012142F8231004E0E4
:1012D000FB7B504A002142F82310FB7B0133FB7358
:1012E000FB7B072BE4D94B4B5B68642203FB02F2C8
:1012F000484B9B68C82101FB03F31A44454B1B690B
:101300004FF4C87103FB01F1424BDB684FF4967058
:1013100000FB03F30B441A443E4B9B694FF41671D8
:1013200003FB01F13B4B5B694FF4FA7000FB03F3E5
:101330000B441A44374BDB694FF42F7101FB03F365
:10134000134407EE903AF8EE677AC7ED027A314B14
:101350001A68304B5B681A442E4B9B681A442D4B1D
:10136000DB681A442B4B1B691A442A4B5B691A44ED
:10137000284B9B691A44274BDB69134407EE903ACC
:10138000F8EE677AC7ED017AD7ED026A97ED017A38
:10139000C6EE877A204BC3ED007A204BD3ED007A5E
:1013A0009FED1F7AF4EEC77AF1EE10FA0DD81A4BC2
:1013B000D3ED007ABFEE007AF4EE477AF1EE10FA40
:1013C00003D1154B4FF000021A60144BD3ED007A95
:1013D0009FED147AF4EEC77AF1EE10FA0CDB0E4BA7
:1013E000D3ED007ABFEE007AF4EE477AF1EE10FA10
:1013F00002D1094B0C4A1A60074B1B68074A13605D
:1014000000F014F800BF1037BD4680BDBC030020BB
:101410008C040020AC040020CC040020D004002068
:10142000000048420080224400002F44F0B58FB0F5
:1014300008AF2248FEF724FF03461A4600211F4842
:1014400005F0A7FD1E4B1B687B611D4B5968396178
:101450001B4B9C681A4BDD68194B1E69184B586969
:10146000F860174B9A69BA60154BD9697960154BCA
:101470001B681846FFF770F802460B46CDE90623B5
:1014800079680591BA680492F8680390029601950C
:1014900000943B697A690C49084805F017FD074834
:1014A000FEF7EEFE03469AB24FF0FF3303490748BA
:1014B00003F0CEFD00BF1C37BD46F0BDE0030020A9
:1014C000BC030020CC040020CCA800082C03002082
:1014D00080B500AF00F03AFF00F072F800F0F6FAC5
:1014E00000F0D4FA00F07EFA00F098F900F0FAF972
:1014F00000F0D0F800F0A0FA0421294802F0D8FF4B
:101500000821274802F0D4FF0821264802F0D0FF26
:101510000C21244802F0CCFF234B1B681A462349B8
:10152000234800F0EDFF00BF4FF40051214802F0C6
:101530003DFA0346002BF7D1FFF762FD4FF47A70B6
:1015400000F076FF00BF4FF400511A4802F02EFA67
:101550000346002BF7D1FFF7C1FD4FF47A7000F07E
:1015600067FF00BF4FF40051124802F01FFA034614
:10157000002BF7D1FFF720FE4FF47A7000F058FFF0
:10158000042200210C4805F004FD20210B4802F044
:101590003EFAFFF787FE4FF4FA7000F049FFF4E7D8
:1015A0009C020020E402002000000020BC03002078
:1015B000F401002000080240140400200000024052
:1015C00080B594B000AF07F1200330220021184607
:1015D00005F0DFFC07F10C0300221A605A609A60E4
:1015E000DA601A610023BB60284B1B6C274A43F06A
:1015F00080531364254B1B6C03F08053BB60BB68A6
:1016000000237B60224B1B68214A43F44043136054
:101610001F4B1B6803F440437B607B6802233B62E3
:101620000123FB6210233B630223BB630023FB63A4
:1016300010233B644FF4A8737B640423BB6404232E
:10164000FB6407F12003184602F0FCF90346002B67
:1016500001D000F0FFFA0F23FB6002233B6100235F
:101660007B614FF48053BB610023FB6107F10C03E6
:101670000221184602F05EFC0346002B01D000F068
:10168000E9FA00BF5037BD4680BD00BF00380240B8
:101690000070004080B584B000AF3B4600221A6065
:1016A0005A609A60DA60594B594A1A60574B4FF4A6
:1016B00080325A60554B00229A60544B01221A61C5
:1016C000524B01221A76514B002283F820204F4BB7
:1016D0000022DA624D4B4F4A9A624C4B0022DA608C
:1016E0004A4B0922DA61494B012283F83020474BEB
:1016F00001225A61454800F0BFFE0346002B01D08D
:1017000000F0A8FA07233B6001237B600023BB6045
:101710003B4619463D4801F001F80346002B01D035
:1017200000F098FA08233B6002237B603B46194691
:10173000364800F0F3FF0346002B01D000F08AFA90
:1017400009233B6003237B603B4619462F4800F08A
:10175000E5FF0346002B01D000F07CFA0A233B6032
:1017600004237B603B461946284800F0D7FF034618
:10177000002B01D000F06EFA0B233B6005237B6049
:101780003B461946214800F0C9FF0346002B01D013
:1017900000F060FA0C233B6006237B603B46194651
:1017A0001A4800F0BBFF0346002B01D000F052FAAC
:1017B0000D233B6007237B603B461946134800F02E
:1017C000ADFF0346002B01D000F044FA0E233B602E
:1017D00008237B603B4619460C4800F09FFF0346F8
:1017E000002B01D000F036FA0B4B3B6009237B60E5
:1017F0003B461946054800F091FF0346002B01D0F7
:1018000000F028FA00BF1037BD4680BDF40100206B
:10181000002001400100000F1200001080B58AB0C6
:1018200000AF07F1200300221A605A603B1D00221E
:101830001A605A609A60DA601A615A619A61274B9D
:10184000274A1A60254B53225A60244B00229A6083
:10185000224B6322DA60214B00221A611F4B0022C7
:101860009A611E4802F0D5FD0346002B01D000F01E
:10187000F1F900233B6200237B6207F12003194644
:10188000164803F027FB0346002B01D000F0E2F9D5
:1018900060237B600023BB600023FB6000237B612F
:1018A0003B1D042219460D4802F0B2FE0346002BF0
:1018B00001D000F0CFF93B1D08221946074802F07D
:1018C000A7FE0346002B01D000F0C4F9034800F046
:1018D000E3FA00BF2837BD4680BD00BF9C02002050
:1018E0000004004080B58EB000AF07F1280300224D
:1018F0001A605A609A60DA6007F1200300221A60C9
:101900005A603B1D00221A605A609A60DA601A61C0
:101910005A619A61314B324A1A60304B53225A60F5
:101920002E4B00229A602D4B6322DA602B4B002253
:101930001A612A4B00229A61284802F01BFD0346D7
:10194000002B01D000F086F94FF48053BB6207F101
:1019500028031946214802F01DFF0346002B01D041
:1019600000F078F91D4802F054FD0346002B01D029
:1019700000F070F900233B6200237B6207F1200333
:101980001946164803F0A6FA0346002B01D000F0D2
:1019900061F960237B600023BB600023FB600023B0
:1019A0007B613B1D082219460C4802F031FE0346BC
:1019B000002B01D000F04EF93B1D0C2219460748C0
:1019C00002F026FE0346002B01D000F043F9034845
:1019D00000F062FA00BF3837BD4680BDE402002047
:1019E0000008004080B500AF114B124A1A60104B3E
:1019F0004FF4E1325A600E4B00229A600C4B0022E9
:101A0000DA600B4B00221A61094B0C225A61084B19
:101A100000229A61064B0022DA61054803F0C8FAF9
:101A20000346002B01D000F015F900BF80BD00BFB8
:101A30002C0300200044004080B500AF114B124A37
:101A40001A60104B4FF4E1325A600E4B00229A603C
:101A50000C4B0022DA600B4B00221A61094B042266
:101A60005A61084B00229A61064B0022DA61054850
:101A700003F09EFA0346002B01D000F0EBF800BF04
:101A800080BD00BF740300200014014080B582B007
:101A900000AF00237B600C4B1B6B0B4A43F48003AD
:101AA0001363094B1B6B03F480037B607B6800228C
:101AB0000021382001F0BDF9382001F0D6F900BF2F
:101AC0000837BD4680BD00BF0038024080B588B0F1
:101AD00000AF07F10C0300221A605A609A60DA60C6
:101AE0001A610023BB603B4B1B6B3A4A43F0040373
:101AF0001363384B1B6B03F00403BB60BB6800230C
:101B00007B60344B1B6B334A43F001031363314B4F
:101B10001B6B03F001037B607B6800233B602D4B54
:101B20001B6B2C4A43F0020313632A4B1B6B03F01D
:101B300002033B603B6800224FF44871264801F0E5
:101B40004DFF00222021254801F048FF00224DF2E0
:101B50000441234801F042FF4FF40053FB604FF46F
:101B600004133B6100237B6107F10C0319461B48FA
:101B700001F098FD4FF44873FB6001233B610023A3
:101B80007B610023BB6107F10C031946124801F089
:101B900089FD2023FB6001233B6100237B6100233F
:101BA000BB6107F10C0319460C4801F07BFD4DF2B7
:101BB0000443FB6001233B6100237B610023BB6185
:101BC00007F10C031946064801F06CFD00BF2037F1
:101BD000BD4680BD003802400000024000080240BF
:101BE0000004024080B582B000AF7860134B1B68E0
:101BF0000133124A13601248FEF742FB03461A46AD
:101C000000210F4805F0C5F90E4A0F490C4805F0B0
:101C10005DF94FF0FF33322209490C4803F018FAFE
:101C200004220021074805F0B4F9042205490848B8
:101C300003F099FA00BF0837BD4680BD4804002074
:101C4000E003002014040020FCA800082C0300205E
:101C50007403002080B400AF72B600BFFEE700003E
:101C600080B582B000AF00237B60104B5B6C0F4AE5
:101C700043F4804353640D4B5B6C03F480437B60FF
:101C80007B6800233B60094B1B6C084A43F0805380
:101C90001364064B1B6C03F080533B603B680720CA
:101CA00001F0BCF800BF0837BD4680BD00380240D7
:101CB00080B58CB000AF786007F11C0300221A6079
:101CC0005A609A60DA601A617B681B68494A9342DD
:101CD00040F08C800023BB61474B5B6C464A43F469
:101CE00080735364444B5B6C03F48073BB61BB69CA
:101CF00000237B61404B1B6B3F4A43F0040313639B
:101D00003D4B1B6B03F004037B617B6900233B614C
:101D1000394B1B6B384A43F001031363364B1B6B83
:101D200003F001033B613B690023FB60324B1B6BFB
:101D3000314A43F0020313632F4B1B6B03F0020382
:101D4000FB60FB681F23FB6103233B6200237B6274
:101D500007F11C031946294801F0A4FC8023FB610C
:101D600003233B6200237B6207F11C0319462448CE
:101D700001F098FC0323FB6103233B6200237B6299
:101D800007F11C0319461F4801F08CFC1E4B1F4A2B
:101D90001A601D4B00225A601B4B00229A601A4B9E
:101DA0000022DA60184B4FF480621A61164B4FF430
:101DB00080525A61144B4FF480429A61124B4FF497
:101DC0008072DA61104B00221A620F4B00225A62B5
:101DD0000D4801F065F80346002B01D0FFF73AFFEC
:101DE0007B68094A9A63084A7B68936300BF30376F
:101DF000BD4680BD0020014000380240000802407E
:101E000000000240000402403C0200201064024036
:101E100080B485B000AF78607B681B680B4A934242
:101E20000DD10023FB600A4B1B6C094A43F00203EF
:101E30001364074B1B6C03F00203FB60FB6800BFDD
:101E40001437BD465DF8047B704700BF00040040B6
:101E50000038024080B485B000AF78607B681B68B2
:101E60000B4A93420DD10023FB600A4B1B6C094ABD
:101E700043F004031364074B1B6C03F00403FB6083
:101E8000FB6800BF1437BD465DF8047B704700BF98
:101E9000000800400038024080B58AB000AF78608A
:101EA00007F1140300221A605A609A60DA601A611E
:101EB0007B681B68254A93421FD100233B61244B5A
:101EC0001B6B234A43F004031363214B1B6B03F08A
:101ED00004033B613B694FF4C0737B610223BB6128
:101EE0000023FB6100233B6202237B6207F11403A2
:101EF0001946184801F0D6FB23E07B681B68164A98
:101F000093421ED10023FB60114B1B6B104A43F020
:101F1000020313630E4B1B6B03F00203FB60FB68B1
:101F20004FF440737B610223BB610023FB610023FC
:101F30003B6202237B6207F114031946074801F054
:101F4000B1FB00BF2837BD4680BD00BF0004004084
:101F5000003802400008024000080040000402402F
:101F600080B58CB000AF786007F11C0300221A60C6
:101F70005A609A60DA601A617B681B68494A93422A
:101F800034D10023BB61484B1B6C474A43F40033F8
:101F90001364454B1B6C03F40033BB61BB69002326
:101FA0007B61414B1B6B404A43F0010313633E4B83
:101FB0001B6B03F001037B617B690C23FB61022334
:101FC0003B6200237B620323BB620723FB6207F1B2
:101FD0001C031946354801F065FB0022002126202C
:101FE00000F027FF262000F040FF57E07B681B68C9
:101FF0002F4A934252D100233B612B4B5B6C2A4A00
:1020000043F020035364284B5B6C03F020033B61D7
:102010003B690023FB60244B1B6B234A43F0040302
:102020001363214B1B6B03F00403FB60FB6800236D
:10203000BB601D4B1B6B1C4A43F0010313631A4B1F
:102040001B6B03F00103BB60BB684023FB610223F1
:102050003B6200237B620323BB620823FB6207F120
:102060001C031946134801F01DFB4FF48053FB611C
:1020700002233B6200237B620323BB620823FB62D3
:1020800007F11C031946094801F00CFB002200214E
:10209000472000F0CEFE472000F0E7FE00BF3037BB
:1020A000BD4680BD004400400038024000000240B0
:1020B000001401400008024080B400AFFEE780B485
:1020C00000AFFEE780B400AFFEE780B400AFFEE7EC
:1020D00080B400AFFEE780B400AF00BFBD465DF83E
:1020E000047B704780B400AF00BFBD465DF8047B41
:1020F000704780B400AF00BFBD465DF8047B7047F9
:1021000080B500AF00F074F900BF80BD80B500AFAE
:10211000024803F04DF800BF80BD00BF2C03002033
:1021200080B500AF024801F053F800BF80BD00BF8A
:102130003C02002080B500AF024803F039F800BF30
:1021400080BD00BF7403002080B400AF0123184697
:10215000BD465DF8047B704780B582B000AF786003
:10216000396004F069FF034616221A604FF0FF330E
:1021700018460837BD4680BD80B582B000AF786094
:102180004FF0FF317868FFF7E7FFFEE780B586B0D4
:1021900000AFF860B9607A6000237B610AE0AFF3BA
:1021A00000800146BB685A1CBA60CAB21A707B69CB
:1021B00001337B617A697B689A42F0DB7B68184661
:1021C0001837BD4680BD80B586B000AFF860B960F5
:1021D0007A6000237B6109E0BB685A1CBA601B78F7
:1021E0001846AFF300807B6901337B617A697B68B5
:1021F0009A42F1DB7B6818461837BD4680BD80B433
:1022000083B000AF78604FF0FF3318460C37BD46FF
:102210005DF8047B704780B483B000AF78603960AC
:102220003B684FF400525A60002318460C37BD46F5
:102230005DF8047B704780B483B000AF7860012301
:1022400018460C37BD465DF8047B704780B485B0F6
:1022500000AFF860B9607A60002318461437BD46B5
:102260005DF8047B7047000080B586B000AF7860F1
:10227000144A154BD31A7B617B693B61134B1B6876
:10228000002B02D1114B124A1A60104B1A687B685E
:1022900013443A699A4207D204F0CEFE03460C2258
:1022A0001A604FF0FF3309E0084B1B68FB60074BD7
:1022B0001A687B681344054A1360FB681846183790
:1022C000BD4680BD0000022000040000D4040020B0
:1022D0002806002080B400AF064BD3F88830054AAA
:1022E00043F47003C2F8883000BFBD465DF8047B3C
:1022F000704700BF00ED00E0DFF834D0FFF7EAFFE1
:102300000C480D490D4A002302E0D458C450043350
:10231000C4188C42F9D30A4A0A4C002301E0136026
:102320000432A242FBD304F08DFEFFF7D1F87047D0
:102330000000022000000020D801002068AD000845
:10234000D801002028060020FEE7000080B500AF7D
:102350000E4B1B680D4A43F4007313600B4B1B6854
:102360000A4A43F480631360084B1B68074A43F42E
:1023700080731360032000F051FD002000F008F886
:10238000FFF76EFC0023184680BD00BF003C0240F2
:1023900080B582B000AF7860124B1A68124B1B7880
:1023A00019464FF47A73B3FBF1F3B2FBF3F318461B
:1023B00000F069FD0346002B01D001230EE07B688D
:1023C0000F2B0AD8002279684FF0FF3000F031FD62
:1023D000064A7B681360002300E001231846083793
:1023E000BD4680BD040000200C0000200800002035
:1023F00080B400AF064B1B781A46064B1B6813448B
:10240000044A136000BFBD465DF8047B704700BFFF
:102410000C000020D804002080B400AF034B1B68E0
:102420001846BD465DF8047B704700BFD804002005
:1024300080B584B000AF7860FFF7EEFFB8607B68CE
:10244000FB60FB68B3F1FF3F05D00A4B1B781A46CF
:10245000FB681344FB6000BFFFF7DEFF0246BB686A
:10246000D31AFA689A42F7D800BF00BF1037BD46AA
:1024700080BD00BF0C00002080B584B000AF786044
:102480000023FB737B68002B01D1012333E07B68C1
:102490001B6C002B09D17868FFF70AFC7B680022CF
:1024A0005A647B68002283F83C207B681B6C03F035
:1024B0001003002B18D17B681B6C23F4885323F086
:1024C000020343F002027B681A64786800F058FA4D
:1024D0007B6800225A647B681B6C23F0030343F083
:1024E00001027B681A6401E00123FB737B68002210
:1024F00083F83C20FB7B18461037BD4680BD0000AA
:1025000080B586B000AFF860B9607A6000233B61A7
:10251000FB6893F83C30012B01D10223CEE0FB682D
:10252000012283F83C20FB681B689B6803F00103D1
:10253000012B18D0FB681B689A68FB681B6842F087
:1025400001029A605F4B1B685F4AA2FB03239A0C4F
:1025500013465B0013443B6102E03B69013B3B6176
:102560003B69002BF9D1FB681B689B6803F48073FF
:10257000B3F5807F07D1FB681B689A68FB681B680E
:1025800022F480729A60FB681B689B6803F0010369
:10259000012B40F08680FB681B6C23F4E06323F082
:1025A000010343F48072FB681A64FB681B685B6874
:1025B00003F48063002B07D0FB681B6C23F44053AB
:1025C00043F48052FB681A64FB681B6C03F480536D
:1025D000B3F5805F06D1FB685B6C23F00602FB68F5
:1025E0005A6402E0FB6800225A64FB68002283F808
:1025F0003C20364B7B61FB689B6B354ADA63FB689A
:102600009B6B344A1A64FB689B6B334ADA64FB6841
:102610001B686FF022021A60FB681B685A68FB682F
:102620001B6842F080625A60FB681B689A68FB680E
:102630001B6842F480729A60FB68986BFB681B68A9
:102640004C331946BA687B6800F0D8FC7B695B683C
:1026500003F01F03002B0FD1FB681B689B6803F07E
:102660004053002B29D1FB681B689A68FB681B68E4
:1026700042F080429A6020E0FB681B68174A934250
:102680001BD1FB681B689B6803F04053002B14D1DF
:10269000FB681B689A68FB681B6842F080429A607E
:1026A0000BE0FB681B6C43F01002FB681A64FB68CC
:1026B0005B6C43F00102FB685A640023184618372C
:1026C000BD4680BD0400002083DE1B430023014083
:1026D000792B0008332C00084F2C00080020014003
:1026E00080B483B000AF786000BF0C37BD465DF8A2
:1026F000047B704780B483B000AF786000BF0C37B4
:10270000BD465DF8047B704780B483B000AF78604D
:1027100000BF0C37BD465DF8047B704780B485B0C0
:1027200000AF786039600023BB607B6893F83C3071
:10273000012B01D1022313E17B68012283F83C20A5
:102740003B681B68092B25D97B681B68D9683B68E7
:102750001B689BB21A4613465B0013441E3B0722BC
:1027600002FA03F3DA437B681B680A40DA607B688D
:102770001B68D9683B689A683B681B689BB218461F
:1027800003465B0003441E3B9A407B681B680A4378
:10279000DA6022E07B681B6819693B681B689BB2A2
:1027A0001A4613465B001344072202FA03F3DA4386
:1027B0007B681B680A401A617B681B6819693B6863
:1027C0009A683B681B689BB2184603465B0003444B
:1027D0009A407B681B680A431A613B685B68062B5A
:1027E00024D87B681B68596B3B685A6813469B006A
:1027F0001344053B1F2202FA03F3DA437B681B688C
:102800000A405A637B681B68596B3B681B689BB224
:1028100018463B685A6813469B001344053B00FA70
:1028200003F27B681B680A435A634CE03B685B68B1
:102830000C2B24D87B681B68196B3B685A681346BD
:102840009B001344233B1F2202FA03F3DA437B6805
:102850001B680A401A637B681B68196B3B681B681E
:102860009BB218463B685A6813469B001344233BAF
:1028700000FA03F27B681B680A431A6323E07B6853
:102880001B68D96A3B685A6813469B001344413B56
:102890001F2202FA03F3DA437B681B680A40DA62FC
:1028A0007B681B68D96A3B681B689BB218463B680B
:1028B0005A6813469B001344413B00FA03F27B68BD
:1028C0001B680A43DA62294BFB607B681B68284A55
:1028D00093420FD13B681B68122B0BD1FB685B68DE
:1028E00023F40002FB685A60FB685B6843F48002D3
:1028F000FB685A607B681B681D4A93422BD13B687A
:102900001B681C4A934203D03B681B68112B22D1E1
:10291000FB685B6823F48002FB685A60FB685B68B5
:1029200043F40002FB685A603B681B68114A9342FB
:1029300011D1114B1B68114AA2FB03239A0C1346B9
:102940009B0013445B00BB6002E0BB68013BBB60C3
:10295000BB68002BF9D17B68002283F83C20002360
:1029600018461437BD465DF8047B704700230140CC
:1029700000200140120000100400002083DE1B43F1
:1029800080B485B000AF7860794BFB60FB685B6812
:1029900023F44032FB685A60FB685A687B685B68C6
:1029A0001A43FB685A607B681B685A687B681B681F
:1029B00022F480725A607B681B6859687B681B69C7
:1029C0001A027B681B680A435A607B681B685A6856
:1029D0007B681B6822F040725A607B681B685968EC
:1029E0007B689A687B681B680A435A607B681B682F
:1029F0009A687B681B6822F400629A607B681B6897
:102A000099687B68DA687B681B680A439A607B6810
:102A10009B6A584A934222D07B681B689A687B68FD
:102A20001B6822F070629A607B681B6899687B68FB
:102A30009A6A7B681B680A439A607B681B689A687D
:102A40007B681B6822F040529A607B681B6899681B
:102A50007B68DA6A7B681B680A439A600FE07B68D0
:102A60001B689A687B681B6822F070629A607B68BA
:102A70001B689A687B681B6822F040529A607B68EA
:102A80001B689A687B681B6822F002029A607B6868
:102A90001B6899687B681B7E5A007B681B680A4329
:102AA0009A607B6893F82030002B1BD07B681B68F2
:102AB0005A687B681B6842F400625A607B681B6836
:102AC0005A687B681B6822F460425A607B681B6806
:102AD00059687B685B6A013B5A037B681B680A4341
:102AE0005A6007E07B681B685A687B681B6822F4A1
:102AF00000625A607B681B68DA6A7B681B6822F494
:102B00007002DA627B681B68D96A7B68DB69013B0B
:102B10001A057B681B680A43DA627B681B689A683F
:102B20007B681B6822F400729A607B681B68996856
:102B30007B6893F830305A027B681B680A439A60BE
:102B40007B681B689A687B681B6822F480629A60C5
:102B50007B681B6899687B685B699A027B681B6865
:102B60000A439A6000BF1437BD465DF8047B704786
:102B7000002301400100000F80B584B000AF7860F1
:102B80007B689B6BFB60FB681B6C03F05003002BA6
:102B90003CD1FB681B6C43F40072FB681A64FB6851
:102BA0001B689B6803F04053002B2BD1FB681B7EF6
:102BB000002B27D1FB681B68DB6A03F47003002B32
:102BC00006D0FB681B689B6803F48063002B19D157
:102BD000FB681B685A68FB681B6822F020025A6079
:102BE000FB681B6C23F48072FB681A64FB681B6C27
:102BF00003F48053002B05D1FB681B6C43F00102EA
:102C0000FB681A64F868FFF76BFD0EE0FB681B6C4D
:102C100003F01003002B03D0F868FFF775FD04E004
:102C2000FB689B6BDB6C7868984700BF1037BD462C
:102C300080BD80B584B000AF78607B689B6BFB6023
:102C4000F868FFF757FD00BF1037BD4680BD80B55F
:102C500084B000AF78607B689B6BFB60FB684022B0
:102C60001A64FB685B6C43F00402FB685A64F86802
:102C7000FFF74AFD00BF1037BD4680BD80B485B068
:102C800000AF78607B6803F00703FB600C4BDB68E8
:102C9000BB60BA684FF6FF031340BB60FB681A02C3
:102CA000BB68134343F0BF6343F40033BB60044A83
:102CB000BB68D36000BF1437BD465DF8047B704726
:102CC00000ED00E080B400AF044BDB681B0A03F0AA
:102CD00007031846BD465DF8047B704700ED00E031
:102CE00080B483B000AF0346FB7197F90730002B27
:102CF0000BDBFB7903F01F02074997F907305B09EB
:102D0000012000FA02F241F8232000BF0C37BD4633
:102D10005DF8047B704700BF00E100E080B483B041
:102D200000AF03463960FB7197F90730002B0ADBCF
:102D30003B68DAB20C4997F907301201D2B20B4462
:102D400083F800230AE03B68DAB20849FB7903F014
:102D50000F03043B1201D2B20B441A7600BF0C37AA
:102D6000BD465DF8047B704700E100E000ED00E047
:102D700080B489B000AFF860B9607A60FB6803F096
:102D80000703FB61FB69C3F10703042B28BF04237E
:102D9000BB61FB690433062B02D9FB69033B00E0EE
:102DA00000237B614FF0FF32BB6902FA03F3DA4381
:102DB000BB681A407B699A404FF0FF317B6901FA8A
:102DC00003F3D9437B680B40134318462437BD46B1
:102DD0005DF8047B7047000080B582B000AF78607A
:102DE0007B68013BB3F1807F01D301230FE00A4AE6
:102DF0007B68013B53600F214FF0FF30FFF78EFFE0
:102E0000054B00229A60044B07221A6000231846E3
:102E10000837BD4680BD00BF10E000E080B582B03D
:102E200000AF78607868FFF729FF00BF0837BD461C
:102E300080BD80B586B000AF0346B9607A60FB7391
:102E400000237B61FFF73EFF78617A68B968786993
:102E5000FFF78EFF024697F90F3011461846FFF72D
:102E60005DFF00BF1837BD4680BD80B582B000AFA2
:102E70000346FB7197F907301846FFF731FF00BF93
:102E80000837BD4680BD80B582B000AF78607868F5
:102E9000FFF7A2FF034618460837BD4680BD000075
:102EA00080B586B000AF786000237B61FFF7B4FA8D
:102EB00038617B68002B01D1012399E07B680222F5
:102EC00083F835207B68002283F834207B681B68F8
:102ED0001A687B681B6822F001021A600FE0FFF796
:102EE0009BFA02463B69D31A052B08D97B6820223E
:102EF0005A657B68032283F83520032378E07B68DA
:102F00001B681B6803F00103002BE8D17B681B687A
:102F10001B687B617A69384B13407B617B685A6818
:102F20007B689B681A437B68DB681A437B681B6974
:102F30001A437B685B691A437B689B691A437B6809
:102F4000DB691A437B681B6A13437A6913437B610D
:102F50007B685B6A042B07D17B68DA6A7B681B6B32
:102F600013437A6913437B617B681B687A691A6033
:102F70007B681B685B697B617B6923F007037B616E
:102F80007B685B6A7A6913437B617B685B6A042BAD
:102F900017D17B689B6A7A6913437B617B68DB6A24
:102FA000002B0ED0786800F001FB0346002B08D000
:102FB0007B6840225A657B68012283F83520012313
:102FC00016E07B681B687A695A61786800F0B8FA85
:102FD0000346FB607B68DB6D3F229A40FB689A608A
:102FE0007B6800225A657B68012283F83520002324
:102FF00018461837BD4680BD3F8010F080B586B0BA
:1030000000AFF860B9607A603B600023FB75FB6835
:103010009B6D3B61FB6893F83430012B01D1022397
:1030200040E0FB68012283F83420FB6893F83530D8
:10303000DBB2012B2FD1FB68022283F83520FB681D
:1030400000225A653B687A68B968F86800F04AFA65
:10305000FB68DB6D3F229A403B699A60FB681B6806
:103060001A68FB681B6842F016021A60FB681B6C4A
:10307000002B07D0FB681B681A68FB681B6842F0CE
:1030800008021A60FB681B681A68FB681B6842F03C
:1030900001021A6005E0FB68002283F83420022355
:1030A000FB75FB7D18461837BD4680BD80B584B0E2
:1030B00000AF78607B689B6DFB60FFF7ADF9B8608F
:1030C0007B6893F83530DBB2022B08D07B68802216
:1030D0005A657B68002283F83420012352E07B6824
:1030E0001B681A687B681B6822F016021A607B68EE
:1030F0001B685A697B681B6822F080025A617B68F2
:103100001B6C002B03D17B689B6C002B07D07B686A
:103110001B681A687B681B6822F008021A607B68CB
:103120001B681A687B681B6822F001021A6013E0B2
:10313000FFF772F90246BB68D31A052B0CD97B68DE
:1031400020225A657B68032283F835207B680022A1
:1031500083F83420032315E07B681B681B6803F0A9
:103160000103002BE4D17B68DB6D3F229A40FB68B2
:103170009A607B68012283F835207B68002283F8FF
:103180003420002318461037BD4680BD80B483B07C
:1031900000AF78607B6893F83530DBB2022B04D047
:1031A0007B6880225A6501230CE07B68052283F846
:1031B00035207B681B681A687B681B6822F0010257
:1031C0001A60002318460C37BD465DF8047B704733
:1031D00080B586B000AF78600023BB608E4B1B6863
:1031E0008E4AA2FB03239B0A7B617B689B6D3B613C
:1031F0003B691B68FB607B68DB6D08229A40FB68BB
:103200001340002B1AD07B681B681B6803F0040373
:10321000002B13D07B681B681A687B681B6822F040
:1032200004021A607B68DB6D08229A403B699A6051
:103230007B685B6D43F001027B685A657B68DB6DE0
:1032400001229A40FB681340002B12D07B681B6858
:103250005B6903F08003002B0BD07B68DB6D0122E0
:103260009A403B699A607B685B6D43F002027B6821
:103270005A657B68DB6D04229A40FB681340002B83
:1032800012D07B681B681B6803F00203002B0BD075
:103290007B68DB6D04229A403B699A607B685B6DBA
:1032A00043F004027B685A657B68DB6D10229A400C
:1032B000FB681340002B43D07B681B681B6803F03E
:1032C0000803002B3CD07B68DB6D10229A403B69E1
:1032D0009A607B681B681B6803F48023002B18D05E
:1032E0007B681B681B6803F40023002B08D17B68F4
:1032F0001B6C002B24D07B681B6C786898471FE000
:103300007B689B6C002B1BD07B689B6C7868984714
:1033100016E07B681B681B6803F48073002B07D1E1
:103320007B681B681A687B681B6822F008021A60B9
:103330007B681B6C002B03D07B681B6C78689847FC
:103340007B68DB6D20229A40FB681340002B00F065
:103350008F807B681B681B6803F01003002B00F054
:1033600087807B68DB6D20229A403B699A607B688E
:1033700093F83530DBB2052B36D17B681B681A68B1
:103380007B681B6822F016021A607B681B685A690A
:103390007B681B6822F080025A617B681B6C002BE3
:1033A00003D17B689B6C002B07D07B681B681A6875
:1033B0007B681B6822F008021A607B68DB6D3F2285
:1033C0009A403B699A607B68012283F835207B68CC
:1033D000002283F834207B681B6D002B7ED07B6835
:1033E0001B6D7868984779E07B681B681B6803F45D
:1033F0008023002B1DD07B681B681B6803F400230F
:10340000002B0DD17B685B6C002B31D07B685B6C33
:10341000786898472CE000BF04000020B5814E1B5F
:103420007B68DB6B002B23D07B68DB6B786898476D
:103430001EE07B681B681B6803F48073002B0FD1B0
:103440007B681B681A687B681B6822F010021A6090
:103450007B68012283F835207B68002283F83420C2
:103460007B68DB6B002B03D07B68DB6B786898474D
:103470007B685B6D002B32D07B685B6D03F00103D2
:10348000002B22D07B68052283F835207B681B68DF
:103490001A687B681B6822F001021A60BB6801335E
:1034A000BB607A699A4207D37B681B681B6803F08C
:1034B0000103002BF2D100E000BF7B68012283F8FA
:1034C00035207B68002283F834207B68DB6C002B7E
:1034D00005D07B68DB6C7868984700E000BF183740
:1034E000BD4680BD80B485B000AFF860B9607A6039
:1034F0003B60FB681B681A68FB681B6822F480222B
:103500001A60FB681B683A685A60FB689B68402B2E
:1035100008D1FB681B687A689A60FB681B68BA6808
:10352000DA6007E0FB681B68BA689A60FB681B6892
:103530007A68DA6000BF1437BD465DF8047B7047D7
:1035400080B485B000AF78607B681B68DBB2103B4D
:10355000144AA2FB03231B09FB60134AFB681344B4
:103560001B781A467B68DA65FB68032B09D97B68F0
:103570001B6823F47F7323F003031A1D7B689A658D
:1035800007E07B681B6823F47F7323F003037A68EA
:1035900093657B689B6D18461437BD465DF8047BC8
:1035A000704700BFABAAAAAA28A9000880B485B0BA
:1035B00000AF78600023FB737B689B6ABB607B680D
:1035C0009B69002B1FD1BB68032B56D801A252F870
:1035D00023F000BFE5350008F7350008E5350008A1
:1035E0007B3600087B68DB6A03F08073002B46D0D3
:1035F0000123FB7343E07B68DB6AB3F1C07F40D1FA
:103600000123FB733DE07B689B69B3F5005F21D12B
:10361000BB68032B37D801A252F823F02D360008DF
:10362000333600082D360008453600080123FB73A9
:1036300030E07B68DB6A03F08073002B25D0012328
:10364000FB7322E07B68DB6AB3F1C07F1FD10123EB
:10365000FB731CE0BB68022B03D9BB68032B03D0B0
:1036600018E00123FB7315E07B68DB6A03F08073CD
:10367000002B0ED00123FB730BE000BF0AE000BF5C
:1036800008E000BF06E000BF04E000BF02E000BFAA
:1036900000E000BFFB7B18461437BD465DF8047B95
:1036A000704700BF80B489B000AF786039600023F4
:1036B0007B6100233B610023BB610023FB6159E177
:1036C0000122FB6902FA03F37B613B681B687A699C
:1036D00013403B613A697B699A4240F048813B68FC
:1036E0005B6803F00303012B05D03B685B6803F0C4
:1036F0000303022B30D17B689B68BB61FB695B00D5
:10370000032202FA03F3DB43BA691340BB613B684F
:10371000DA68FB695B0002FA03F3BA691343BB6121
:103720007B68BA699A607B685B68BB610122FB6950
:1037300002FA03F3DB43BA691340BB613B685B6881
:103740001B0903F00102FB6902FA03F3BA69134390
:10375000BB617B68BA695A603B685B6803F003032E
:10376000032B17D07B68DB68BB61FB695B0003221E
:1037700002FA03F3DB43BA691340BB613B689A6802
:10378000FB695B0002FA03F3BA691343BB617B6810
:10379000BA69DA603B685B6803F00303022B23D14C
:1037A000FB69DA087B68083253F82230BB61FB6999
:1037B00003F007039B000F2202FA03F3DB43BA690D
:1037C0001340BB613B681A69FB6903F007039B0068
:1037D00002FA03F3BA691343BB61FB69DA087B6839
:1037E0000832B96943F822107B681B68BB61FB692A
:1037F0005B00032202FA03F3DB43BA691340BB61A7
:103800003B685B6803F00302FB695B0002FA03F3A9
:10381000BA691343BB617B68BA691A603B685B682D
:1038200003F44033002B00F0A2800023FB60574BD1
:103830005B6C564A43F480435364544B5B6C03F413
:103840008043FB60FB68524AFB699B08023352F8D5
:103850002330BB61FB6903F003039B000F2202FAD4
:1038600003F3DB43BA691340BB617B68494A934267
:1038700019D07B68484A934213D07B68474A9342E9
:103880000DD07B68464A934207D07B68454A9342F5
:1038900001D1042308E0072306E0032304E0022308
:1038A00002E0012300E00023FA6902F00302920023
:1038B0009340BA691343BB613549FB699B080233E6
:1038C000BA6941F82320384B9B68BB613B69DB43F5
:1038D000BA691340BB613B685B6803F48013002B3B
:1038E00003D0BA693B691343BB612F4ABB6993603C
:1038F0002D4BDB68BB613B69DB43BA691340BB619D
:103900003B685B6803F40013002B03D0BA693B6982
:103910001343BB61244ABB69D360234B5B68BB6123
:103920003B69DB43BA691340BB613B685B6803F4E6
:103930000033002B03D0BA693B691343BB611A4AB9
:10394000BB695360184B1B68BB613B69DB43BA69B9
:103950001340BB613B685B6803F48033002B03D0EA
:10396000BA693B691343BB610F4ABB691360FB69CA
:103970000133FB61FB690F2B7FF6A2AE00BF00BFD6
:103980002437BD465DF8047B704700BF0038024015
:1039900000380140000002400004024000080240DC
:1039A000000C024000100240003C014080B485B091
:1039B00000AF78600B467B807B681A697B88134078
:1039C000002B02D00123FB7301E00023FB73FB7B80
:1039D00018461437BD465DF8047B704780B483B049
:1039E00000AF78600B467B8013467B707B78002BA2
:1039F00003D07A887B689A6103E07B881A047B682D
:103A00009A6100BF0C37BD465DF8047B704780B4F7
:103A100085B000AF78600B467B807B685B69FB609C
:103A20007A88FB6813401A04FB68D9437B880B40F3
:103A30001A437B689A6100BF1437BD465DF8047B6A
:103A40007047000080B586B000AF78607B68002BBF
:103A500001D1012367E27B681B6803F00103002B9F
:103A600075D0884B9B6803F00C03042B0CD0854B5E
:103A70009B6803F00C03082B12D1824B5B6803F4A4
:103A80008003B3F5800F0BD17E4B1B6803F400332A
:103A9000002B5BD07B685B68002B57D1012342E28F
:103AA0007B685B68B3F5803F06D1764B1B68754A2F
:103AB00043F4803313601DE07B685B68B3F5A02F8F
:103AC0000CD1704B1B686F4A43F4802313606D4B1D
:103AD0001B686C4A43F4803313600BE0694B1B682E
:103AE000684A23F480331360664B1B68654A23F4ED
:103AF000802313607B685B68002B13D0FEF78CFC7F
:103B0000386108E0FEF788FC02463B69D31A642B53
:103B100001D9032307E25B4B1B6803F40033002B3E
:103B2000F0D014E0FEF778FC386108E0FEF774FC92
:103B300002463B69D31A642B01D90323F3E1514BAD
:103B40001B6803F40033002BF0D100E000BF7B685A
:103B50001B6803F00203002B63D04A4B9B6803F001
:103B60000C03002B0BD0474B9B6803F00C03082B76
:103B70001CD1444B5B6803F48003002B16D1414BEE
:103B80001B6803F00203002B05D07B68DB68012B68
:103B900001D00123C7E13B4B1B6823F0F8027B688F
:103BA0001B69DB00374913430B603AE07B68DB6835
:103BB000002B20D0344B01221A60FEF72DFC386117
:103BC00008E0FEF729FC02463B69D31A022B01D913
:103BD0000323A8E12B4B1B6803F00203002BF0D05A
:103BE000284B1B6823F0F8027B681B69DB00254922
:103BF00013430B6015E0244B00221A60FEF70CFC07
:103C0000386108E0FEF708FC02463B69D31A022B34
:103C100001D9032387E11B4B1B6803F00203002B30
:103C2000F0D17B681B6803F00803002B36D07B685B
:103C30005B69002B16D0154B01221A60FEF7ECFBD6
:103C4000386108E0FEF7E8FB02463B69D31A022B15
:103C500001D9032367E10B4B5B6F03F00203002BD9
:103C6000F0D01BE0094B00221A60FEF7D5FB38614B
:103C70000EE0FEF7D1FB02463B69D31A022B07D9AF
:103C8000032350E10038024000004742800E4742C3
:103C9000884B5B6F03F00203002BEAD17B681B6843
:103CA00003F00403002B00F097800023FB75814B89
:103CB0001B6C03F08053002B0FD10023BB607D4BA6
:103CC0001B6C7C4A43F0805313647A4B1B6C03F0EB
:103CD0008053BB60BB680123FB75774B1B6803F403
:103CE0008073002B18D1744B1B68734A43F48073A4
:103CF0001360FEF791FB386108E0FEF78DFB02468A
:103D00003B69D31A022B01D903230CE16A4B1B68D0
:103D100003F48073002BF0D07B689B68012B06D1E5
:103D2000644B1B6F634A43F0010313671CE07B681D
:103D30009B68052B0CD15F4B1B6F5E4A43F004035D
:103D400013675C4B1B6F5B4A43F0010313670BE087
:103D5000584B1B6F574A23F001031367554B1B6FDA
:103D6000544A23F0040313677B689B68002B15D02B
:103D7000FEF752FB38610AE0FEF74EFB02463B6954
:103D8000D31A41F28832934201D90323CBE0494B45
:103D90001B6F03F00203002BEED014E0FEF73CFB98
:103DA00038610AE0FEF738FB02463B69D31A41F25C
:103DB0008832934201D90323B5E03E4B1B6F03F0D9
:103DC0000203002BEED1FB7D012B05D1394B1B6C7F
:103DD000384A23F0805313647B689B69002B00F002
:103DE000A180344B9B6803F00C03082B5CD07B68EC
:103DF0009B69022B41D1314B00221A60FEF70CFB6C
:103E0000386108E0FEF708FB02463B69D31A022B33
:103E100001D9032387E0274B1B6803F00073002BB5
:103E2000F0D17B68DA697B681B6A1A437B685B6A3E
:103E30009B011A437B689B6A5B08013B1B041A4386
:103E40007B68DB6A1B061B4913434B601B4B01223B
:103E50001A60FEF7E1FA386108E0FEF7DDFA024683
:103E60003B69D31A022B01D903235CE0114B1B6879
:103E700003F00073002BF0D054E0104B00221A60C6
:103E8000FEF7CAFA386108E0FEF7C6FA02463B6957
:103E9000D31A022B01D9032345E0064B1B6803F01C
:103EA0000073002BF0D13DE07B689B69012B07D1AB
:103EB000012338E0003802400070004060004742B3
:103EC0001B4B5B68FB607B689B69012B28D0FB6800
:103ED00003F480027B68DB699A4221D1FB6803F01E
:103EE0003F027B681B6A9A421AD1FA6847F6C07390
:103EF00013407A68526A9201934211D1FB6803F42D
:103F000040327B689B6A5B08013B1B049A4207D1E5
:103F1000FB6803F070627B68DB6A1B069A4201D083
:103F2000012300E0002318461837BD4680BD00BFBE
:103F30000038024080B584B000AF786039607B689B
:103F4000002B01D10123CCE0684B1B6803F0070371
:103F50003A689A420CD9654B3A68D2B21A70634BF0
:103F60001B6803F007033A689A4201D00123B8E0C6
:103F70007B681B6803F00203002B20D07B681B6862
:103F800003F00403002B05D0594B9B68584A43F4B7
:103F9000E05393607B681B6803F00803002B05D097
:103FA000534B9B68524A43F460439360504B9B6869
:103FB00023F0F0027B689B684D4913438B607B685C
:103FC0001B6803F00103002B44D07B685B68012B66
:103FD00007D1474B1B6803F40033002B19D1012391
:103FE0007FE07B685B68022B03D07B685B68032BF8
:103FF00007D13F4B1B6803F00073002B09D101234D
:104000006FE03B4B1B6803F00203002B01D101233F
:1040100067E0374B9B6823F003027B685B68344999
:1040200013438B60FEF7F8F9F8600AE0FEF7F4F945
:104030000246FB68D31A41F28832934201D9032326
:104040004FE02B4B9B6803F00C027B685B689B0086
:104050009A42EBD1254B1B6803F007033A689A425A
:104060000CD2224B3A68D2B21A70204B1B6803F074
:1040700007033A689A4201D0012332E07B681B684B
:1040800003F00403002B08D0194B9B6823F4E05283
:104090007B68DB68164913438B607B681B6803F001
:1040A0000803002B09D0124B9B6823F460427B6805
:1040B0001B69DB000E4913438B6000F021F80246B8
:1040C0000B4B9B681B0903F00F030A49CB5C22FAD8
:1040D00003F3094A1360094B1B681846FEF758F9A9
:1040E000002318461037BD4680BD00BF003C02408B
:1040F0000038024010A90008040000200800002039
:104100002DE9B04F94B000AF00237B640023FB6423
:1041100000233B640023BB64794B9B6803F00C03D2
:10412000082B0DD0082B00F2E180002B02D0042BCD
:1041300003D0DBE0734BBB64DBE0734BBB64D8E0C4
:104140006F4B5B6803F03F037B646D4B5B6803F46C
:104150008003002B63D06A4B5B689B090022BB6322
:10416000FA63BB6BC3F308033B6300237B63D7E9AC
:104170000C4522462B464FF000004FF0000159013C
:1041800041EAD261500102460B462146511A39617B
:10419000294663EB01037B614FF000024FF00003FF
:1041A000D7E904AB59468B01514643EA9163514626
:1041B0008A015146B2EB0108594663EB01094FF001
:1041C00000024FF000034FEAC90343EA58734FEA75
:1041D000C80290469946234618EB0303BB602B4662
:1041E00049EB0303FB604FF000024FF00003D7E9F7
:1041F000024529464B02214643EAD15321464A0251
:10420000104619467B6C0022BB62FA62D7E90A238A
:10421000FCF742FD02460B461346FB6458E0384B60
:104220005B689B09002218461146C0F308033B62F5
:1042300000237B62D7E9088942464B464FF00000D5
:104240004FF00001590141EAD261500102460B468C
:104250004146B2EB010A494663EB010B4FF0000205
:104260004FF000034FEA8B1343EA9A634FEA8A1236
:10427000B2EB0A0463EB0B054FF000024FF00003B2
:10428000EB0043EA5473E20014461D464346E3182C
:104290003B604B4645EB03037B604FF000024FF061
:1042A0000003D7E9004529468B02214643EA915392
:1042B00021468A02104619467B6C0022BB61FA61D6
:1042C000D7E90623FCF7E8FC02460B461346FB64DD
:1042D0000B4B5B681B0C03F0030301335B003B6477
:1042E000FA6C3B6CB2FBF3F3BB6402E0054BBB64BE
:1042F00000BFBB6C18465037BD46BDE8B08F00BF4D
:10430000003802400024F40000127A0080B400AFAC
:10431000034B1B681846BD465DF8047B704700BF21
:104320000400002080B500AFFFF7F0FF0246054B08
:104330009B689B0A03F007030349CB5C22FA03F353
:10434000184680BD0038024020A9000880B500AFA3
:10435000FFF7DCFF0246054B9B685B0B03F007038E
:104360000349CB5C22FA03F3184680BD00380240B3
:1043700020A9000880B582B000AF78607B68002B70
:1043800001D1012341E07B6893F83D30DBB2002B83
:1043900006D17B68002283F83C207868FDF75AFD3F
:1043A0007B68022283F83D207B681A687B680433AF
:1043B0001946104600F0B6FA7B68012283F84620C1
:1043C0007B68012283F83E207B68012283F83F202E
:1043D0007B68012283F840207B68012283F841201A
:1043E0007B68012283F842207B68012283F8432006
:1043F0007B68012283F844207B68012283F84520F2
:104400007B68012283F83D20002318460837BD460B
:1044100080BD80B582B000AF78607B68002B01D191
:10442000012341E07B6893F83D30DBB2002B06D1DD
:104430007B68002283F83C207868FDF7E9FC7B6804
:10444000022283F83D207B681A687B680433194692
:10445000104600F067FA7B68012283F846207B68EB
:10446000012283F83E207B68012283F83F207B688D
:10447000012283F840207B68012283F841207B6879
:10448000012283F842207B68012283F843207B6865
:10449000012283F844207B68012283F845207B6851
:1044A000012283F83D20002318460837BD4680BD11
:1044B00080B584B000AF786039603B68002B09D1CB
:1044C0007B6893F83E30DBB2012B14BF012300233D
:1044D000DBB222E03B68042B09D17B6893F83F30C4
:1044E000DBB2012B14BF01230023DBB215E03B68D4
:1044F000082B09D17B6893F84030DBB2012B14BF45
:1045000001230023DBB208E07B6893F84130DBB283
:10451000012B14BF01230023DBB2002B01D00123A8
:1045200068E03B68002B04D17B68022283F83E20C0
:1045300013E03B68042B04D17B68022283F83F2000
:104540000BE03B68082B04D17B68022283F84020F3
:1045500003E07B68022283F841207B681B6801220C
:104560003968184600F090FC7B681B68234A934228
:1045700007D17B681B685A6C7B681B6842F4004259
:104580005A647B681B681D4A934218D07B681B687D
:10459000B3F1804F13D07B681B68194A93420ED049
:1045A0007B681B68174A934209D07B681B68164AD0
:1045B000934204D07B681B68144A934211D17B68F4
:1045C0001B689B6803F00703FB60FB68062B10D099
:1045D0007B681B681A687B681B6842F001021A60DE
:1045E00007E07B681B681A687B681B6842F0010261
:1045F0001A60002318461037BD4680BD00000140F8
:104600000004004000080040000C00400040014051
:1046100080B586B000AFF860B9607A600023FB75A2
:10462000FB6893F83C30012B01D10223AEE0FB681C
:10463000012283F83C207B680C2B00F29F8001A2B2
:1046400052F823F0794600087D4700087D470008AE
:104650007D470008B94600087D4700087D470008EF
:104660007D470008FB4600087D4700087D4700089D
:104670007D4700083B470008FB681B68B96818467F
:1046800000F0DCF9FB681B689A69FB681B6842F064
:1046900008029A61FB681B689A69FB681B6822F034
:1046A00004029A61FB681B689969BB681A69FB6818
:1046B0001B680A439A6164E0FB681B68B968184686
:1046C00000F022FAFB681B689A69FB681B6842F4D9
:1046D00000629A61FB681B689A69FB681B6822F498
:1046E00080629A61FB681B689969BB681B691A0242
:1046F000FB681B680A439A6143E0FB681B68B96862
:10470000184600F06DFAFB681B68DA69FB681B68E5
:1047100042F00802DA61FB681B68DA69FB681B6813
:1047200022F00402DA61FB681B68D969BB681A6968
:10473000FB681B680A43DA6123E0FB681B68B96801
:10474000184600F0B7FAFB681B68DA69FB681B685B
:1047500042F40062DA61FB681B68DA69FB681B6877
:1047600022F48062DA61FB681B68D969BB681B6947
:104770001A02FB681B680A43DA6102E00123FB7539
:1047800000BFFB68002283F83C20FB7D18461837E9
:10479000BD4680BD80B584B000AF7860396000232D
:1047A000FB737B6893F83C30012B01D10223B4E00A
:1047B0007B68012283F83C207B68022283F83D203D
:1047C0007B681B689B68BB60BB6823F07703BB609A
:1047D000BB6823F47F43BB607B681B68BA689A6040
:1047E0003B681B68B3F5005F3ED0B3F5005F00F295
:1047F0008780B3F5805F00F08680B3F5805F7FD857
:10480000702B1AD0702B7BD8602B50D0602B77D8B0
:10481000502B3CD0502B73D8402B58D0402B6FD806
:10482000302B64D0302B6BD8202B60D0202B67D856
:10483000002B5CD0102B5AD062E07B6818683B6874
:1048400099683B685A683B68DB6800F0FDFA7B6852
:104850001B689B68BB60BB6843F07703BB607B68E9
:104860001B68BA689A604FE07B6818683B68996873
:104870003B685A683B68DB6800F0E6FA7B681B68B7
:104880009A687B681B6842F480429A603CE07B68CF
:1048900018683B6859683B68DB681A4600F05AFAAA
:1048A0007B681B685021184600F0B3FA2CE07B6847
:1048B00018683B6859683B68DB681A4600F079FA6B
:1048C0007B681B686021184600F0A3FA1CE07B6837
:1048D00018683B6859683B68DB681A4600F03AFA8A
:1048E0007B681B684021184600F093FA0CE07B6857
:1048F0001A683B681B681946104600F08AFA03E004
:104900000123FB7300E000BF7B68012283F83D2098
:104910007B68002283F83C20FB7B18461037BD469D
:1049200080BD000080B485B000AF786039607B68DE
:104930001B68FB607B683A4A93420FD07B68B3F1F7
:10494000804F0BD07B68374A934207D07B68364A4A
:10495000934203D07B68354A934208D1FB6823F029
:104960007003FB603B685B68FA681343FB607B681D
:104970002B4A93421BD07B68B3F1804F17D07B68E2
:10498000284A934213D07B68274A93420FD07B6812
:10499000264A93420BD07B68254A934207D07B6816
:1049A000244A934203D07B68234A934208D1FB6890
:1049B00023F44073FB603B68DB68FA681343FB60D9
:1049C000FB6823F080023B685B691343FB607B68F4
:1049D000FA681A603B689A687B68DA623B681A6812
:1049E0007B689A627B680E4A934203D13B681A69DE
:1049F0007B681A637B6801225A617B681B6903F03C
:104A00000103012B05D17B681B6923F001027B6840
:104A10001A6100BF1437BD465DF8047B704700BFC4
:104A2000000001400004004000080040000C00406D
:104A300000400140004401400048014080B487B07C
:104A400000AF786039607B681B6A7B617B681B6A9A
:104A500023F001027B681A627B685B683B617B68BC
:104A60009B69FB60FB6823F07003FB60FB6823F02D
:104A70000303FB603B681B68FA681343FB607B69B8
:104A800023F002037B613B689B687A6913437B6177
:104A90007B681C4A93420CD17B6923F008037B613D
:104AA0003B68DB687A6913437B617B6923F004030D
:104AB0007B617B68134A934211D13B6923F4807375
:104AC0003B613B6923F400733B613B685B693A6976
:104AD00013433B613B689B693A6913433B617B68C5
:104AE0003A695A607B68FA689A613B685A687B68E1
:104AF0005A637B687A691A6200BF1C37BD465DF84D
:104B0000047B70470000014080B487B000AF78603C
:104B100039607B681B6A7B617B681B6A23F010022B
:104B20007B681A627B685B683B617B689B69FB60A2
:104B3000FB6823F4E043FB60FB6823F44073FB60F5
:104B40003B681B681B02FA681343FB607B6923F018
:104B500020037B613B689B681B017A6913437B617F
:104B60007B681E4A93420DD17B6923F080037B61F1
:104B70003B68DB681B017A6913437B617B6923F027
:104B800040037B617B68154A934213D13B6923F450
:104B900080633B613B6923F400633B613B685B6975
:104BA0009B003A6913433B613B689B699B003A69F0
:104BB00013433B617B683A695A607B68FA689A6183
:104BC0003B685A687B689A637B687A691A6200BF9F
:104BD0001C37BD465DF8047B704700BF00000140F4
:104BE00080B487B000AF786039607B681B6A7B61F6
:104BF0007B681B6A23F480727B681A627B685B683F
:104C00003B617B68DB69FB60FB6823F07003FB6042
:104C1000FB6823F00303FB603B681B68FA681343DF
:104C2000FB607B6923F400737B613B689B681B021C
:104C30007A6913437B617B681D4A93420DD17B697E
:104C400023F400637B613B68DB681B027A691343D2
:104C50007B617B6923F480637B617B68144A9342A8
:104C600013D13B6923F480533B613B6923F4005328
:104C70003B613B685B691B013A6913433B613B68DD
:104C80009B691B013A6913433B617B683A695A602F
:104C90007B68FA68DA613B685A687B68DA637B682C
:104CA0007A691A6200BF1C37BD465DF8047B704705
:104CB0000000014080B487B000AF786039607B6845
:104CC0001B6A3B617B681B6A23F480527B681A6213
:104CD0007B685B687B617B68DB69FB60FB6823F456
:104CE000E043FB60FB6823F44073FB603B681B6898
:104CF0001B02FA681343FB603B6923F400533B61DA
:104D00003B689B681B033A6913433B617B68104A0D
:104D1000934209D17B6923F480437B613B685B69E3
:104D20009B017A6913437B617B687A695A607B686F
:104D3000FA68DA613B685A687B681A647B683A698A
:104D40001A6200BF1C37BD465DF8047B704700BF88
:104D50000000014080B487B000AFF860B9607A60AD
:104D6000FB681B6A7B61FB681B6A23F00102FB681E
:104D70001A62FB689B693B613B6923F0F0033B616E
:104D80007B681B013A6913433B617B6923F00A038B
:104D90007B617A69BB6813437B61FB683A699A61FE
:104DA000FB687A691A6200BF1C37BD465DF8047B58
:104DB000704780B487B000AFF860B9607A60FB6874
:104DC0001B6A7B61FB681B6A23F01002FB681A6296
:104DD000FB689B693B613B6923F470433B617B68E3
:104DE0001B033A6913433B617B6923F0A0037B619A
:104DF000BB681B017A6913437B61FB683A699A615E
:104E0000FB687A691A6200BF1C37BD465DF8047BF7
:104E1000704780B485B000AF786039607B689B686C
:104E2000FB60FB6823F07003FB603A68FB68134388
:104E300043F00703FB607B68FA689A6000BF143791
:104E4000BD465DF8047B704780B487B000AFF86062
:104E5000B9607A603B60FB689B687B617B6923F487
:104E60007F437B613B681A027B681A43BB6813432C
:104E70007A6913437B61FB687A699A6000BF1C37CB
:104E8000BD465DF8047B704780B487B000AFF86022
:104E9000B9607A60BB6803F01F03012202FA03F3D2
:104EA0007B61FB681A6A7B69DB431A40FB681A6204
:104EB000FB681A6ABB6803F01F03796801FA03F301
:104EC0001A43FB681A6200BF1C37BD465DF8047BBD
:104ED0007047000080B485B000AF786039607B68AF
:104EE00093F83C30012B01D1022350E07B68012272
:104EF00083F83C207B68022283F83D207B681B6896
:104F00005B68FB607B681B689B68BB60FB6823F089
:104F10007003FB603B681B68FA681343FB607B68A7
:104F20001B68FA685A607B681B681C4A934218D059
:104F30007B681B68B3F1804F13D07B681B68184AED
:104F400093420ED07B681B68164A934209D07B6857
:104F50001B68154A934204D07B681B68134A93422E
:104F60000CD1BB6823F08003BB603B685B68BA6808
:104F70001343BB607B681B68BA689A607B68012238
:104F800083F83D207B68002283F83C2000231846EC
:104F90001437BD465DF8047B704700BF0000014038
:104FA0000004004000080040000C004000400140A8
:104FB00080B582B000AF78607B68002B01D10123FF
:104FC00042E07B6893F84130DBB2002B06D17B686E
:104FD000002283F840207868FCF7C2FF7B68242217
:104FE00083F841207B681B68DA687B681B6822F4C1
:104FF0000052DA60786800F0BDFD7B681B681A69B2
:105000007B681B6822F490421A617B681B685A69AE
:105010007B681B6822F02A025A617B681B68DA6889
:105020007B681B6842F40052DA607B6800225A6495
:105030007B68202283F841207B68202283F842206D
:105040007B6800225A63002318460837BD4680BD9E
:1050500080B58AB002AFF860B9603B601346FB8050
:1050600000237B61FB6893F84130DBB2202B75D1C4
:10507000BB68002B02D0FB88002B01D101236EE01E
:10508000FB6800225A64FB68212283F84120FDF767
:10509000C3F97861FB68FA889A84FB68FA88DA8435
:1050A000FB689B68B3F5805F08D1FB681B69002B28
:1050B00004D10023FB61BB68BB6103E0BB68FB61FB
:1050C0000023BB612EE03B6800937B6900228021B6
:1050D000F86800F01FFB0346002B05D0FB68202278
:1050E00083F8412003233AE0FB69002B0BD1BB6915
:1050F0001B881A46FB681B68C2F308025A60BB692A
:105100000233BB6107E0FB691A78FB681B685A60D1
:10511000FB690133FB61FB68DB8C9BB2013B9AB2FC
:10512000FB68DA84FB68DB8C9BB2002BCBD13B683D
:1051300000937B6900224021F86800F0EBFA0346F7
:10514000002B05D0FB68202283F84120032306E0D2
:10515000FB68202283F84120002300E00223184648
:105160002037BD4680BD80B584B000AFF860B9601F
:105170001346FB80FB6893F84230DBB2202B12D140
:10518000BB68002B02D0FB88002B01D101230BE070
:10519000FB6800221A63FB881A46B968F86800F0B9
:1051A00012FB034600E0022318461037BD4680BDBF
:1051B00080B5BAB000AF78607B681B681B68C7F821
:1051C000E4307B681B68DB68C7F8E0307B681B68ED
:1051D0005B69C7F8DC300023C7F8D8300023C7F874
:1051E000D430D7F8E43003F00F03C7F8D830D7F83D
:1051F000D830002B0FD1D7F8E43003F02003002B78
:1052000009D0D7F8E03003F02003002B03D07868F2
:1052100000F0F2FB5BE2D7F8D830002B00F0DE8024
:10522000D7F8DC3003F00103002B06D1D7F8E030CB
:1052300003F49073002B00F0D180D7F8E43003F032
:105240000103002B0BD0D7F8E03003F48073002B60
:1052500005D07B685B6C43F001027B685A64D7F829
:10526000E43003F00403002B0BD0D7F8DC3003F05C
:105270000103002B05D07B685B6C43F002027B6866
:105280005A64D7F8E43003F00203002B0BD0D7F8B0
:10529000DC3003F00103002B05D07B685B6C43F02E
:1052A00004027B685A64D7F8E43003F00803002B4B
:1052B00011D0D7F8E03003F02003002B05D1D7F848
:1052C000DC3003F00103002B05D07B685B6C43F0FE
:1052D00008027B685A647B685B6C002B00F0F281EB
:1052E000D7F8E43003F02003002B08D0D7F8E030E3
:1052F00003F02003002B02D0786800F07DFB7B6870
:105300001B685B6903F04003402B0CBF01230023A3
:10531000DBB2C7F8D4307B685B6C03F00803002B6A
:1053200003D1D7F8D430002B4FD0786800F085FA3D
:105330007B681B685B6903F04003402B41D17B68AD
:105340001B681433C7F89C30D7F89C3053E8003FF3
:10535000C7F89830D7F8983023F04003C7F8D0301A
:105360007B681B681433D7F8D020C7F8A820C7F88B
:10537000A430D7F8A410D7F8A82041E80023C7F834
:10538000A030D7F8A030002BD9D17B68DB6B002B85
:1053900013D07B68DB6B7E4A1A657B68DB6B184633
:1053A000FDF7F4FE0346002B16D07B68DB6B1B6D0C
:1053B0007A68D26B104698470EE0786800F094F94E
:1053C0000AE0786800F090F906E0786800F08CF95F
:1053D0007B6800225A6475E100BF73E17B681B6B38
:1053E000012B40F04F81D7F8E43003F01003002B7D
:1053F00000F04881D7F8E03003F01003002B00F0F4
:1054000041810023BB607B681B681B68BB607B68B5
:105410001B685B68BB60BB687B681B685B6903F0EB
:105420004003402B40F0B6807B68DB6B1B685B68F9
:10543000A7F8BE30B7F8BE30002B00F045817B687E
:105440009B8DB7F8BE209A4280F03E817B68B7F80A
:10545000BE20DA857B68DB6BDB69B3F5807F00F00B
:1054600088807B681B680C33C7F88830D7F8883091
:1054700053E8003FC7F88430D7F8843023F48073B2
:10548000C7F8B8307B681B680C33D7F8B820C7F86A
:105490009420C7F89030D7F89010D7F8942041E8BE
:1054A0000023C7F88C30D7F88C30002BD9D17B681B
:1054B0001B6814337B677B6F53E8003F3B673B6F90
:1054C00023F00103C7F8B4307B681B681433D7F8A6
:1054D000B420C7F88020FB67F96FD7F8802041E837
:1054E0000023BB67BB6F002BE1D17B681B681433C3
:1054F0003B663B6E53E8003FFB65FB6D23F04003CA
:10550000C7F8B0307B681B681433D7F8B020FA6650
:10551000BB66B96EFA6E41E800237B667B6E002B9A
:10552000E3D17B68202283F842207B6800221A6343
:105530007B681B680C33FB64FB6C53E8003FBB6467
:10554000BB6C23F01003C7F8AC307B681B680C33CE
:10555000D7F8AC20BA657B65796DBA6D41E8002358
:105560003B653B6D002BE3D17B68DB6B1846FDF799
:105570009DFD7B6802225A637B689A8D7B68DB8D78
:105580009BB2D31A9BB21946786800F0B7F89BE03B
:10559000015900087B689A8D7B68DB8D9BB2D31A1A
:1055A000A7F8CE307B68DB8D9BB2002B00F08E809D
:1055B000B7F8CE30002B00F089807B681B680C3375
:1055C000BB63BB6B53E8003F7B637B6B23F490733F
:1055D000C7F8C8307B681B680C33D7F8C8207A64DA
:1055E0003B64396C7A6C41E80023FB63FB6B002B56
:1055F000E3D17B681B6814337B627B6A53E8003F0E
:105600003B623B6A23F00103C7F8C4307B681B6828
:105610001433D7F8C4203A63FB62F96A3A6B41E865
:105620000023BB62BB6A002BE3D17B68202283F896
:1056300042207B6800221A637B681B680C333B6145
:105640003B6953E8003FFB60FB6823F01003C7F899
:10565000C0307B681B680C33D7F8C020FA61BB618F
:10566000B969FA6941E800237B617B69002BE3D1CA
:105670007B6802225A63B7F8CE301946786800F08A
:105680003DF823E0D7F8E43003F08003002B09D085
:10569000D7F8E03003F08003002B03D0786800F0E7
:1056A00043F914E0D7F8E43003F04003002B0ED0A8
:1056B000D7F8E03003F04003002B08D0786800F002
:1056C00083F904E000BF02E000BF00E000BFE8375C
:1056D000BD4680BD80B483B000AF786000BF0C379A
:1056E000BD465DF8047B704780B483B000AF78603E
:1056F00000BF0C37BD465DF8047B704780B483B0B3
:1057000000AF78600B467B8000BF0C37BD465DF86C
:10571000047B704780B586B000AFF860B9603B602D
:105720001346FB713BE03B6AB3F1FF3F37D0FCF718
:1057300073FE02463B68D31A3A6A9A4202D33B6A26
:10574000002B01D103233AE0FB681B68DB6803F000
:105750000403002B23D0BB68802B20D0BB68402BD8
:105760001DD0FB681B681B6803F00803082B16D1CB
:1057700000237B61FB681B681B687B61FB681B68FF
:105780005B687B617B69F86800F057F8FB6808226A
:105790005A64FB68002283F8402001230FE0FB6875
:1057A0001B681A68BB681340BA689A420CBF012391
:1057B0000023DBB21A46FB799A42B4D00023184684
:1057C0001837BD4680BD80B485B000AFF860B960C1
:1057D0001346FB80FB68BA689A62FB68FA889A8570
:1057E000FB68FA88DA85FB6800225A64FB6822228B
:1057F00083F84220FB681B69002B07D0FB681B68FD
:10580000DA68FB681B6842F48072DA60FB681B6828
:105810005A69FB681B6842F001025A61FB681B6809
:10582000DA68FB681B6842F02002DA600023184641
:105830001437BD465DF8047B704780B495B000AF67
:1058400078607B681B680C337B637B6B53E8003F9D
:105850003B633B6B23F49073FB647B681B680C33E6
:10586000FA6C3A64FB63F96B3A6C41E80023BB6362
:10587000BB6B002BE5D17B681B6814333B623B6A32
:1058800053E8003FFB61FB6923F00103BB647B68C5
:105890001B681433BA6CFA62BB62B96AFA6A41E8EF
:1058A00000237B627B6A002BE5D17B681B6B012B9D
:1058B00019D17B681B680C33FB60FB6853E8003F21
:1058C000BB60BB6823F010037B647B681B680C33F0
:1058D0007A6CBA617B617969BA6941E800233B61FE
:1058E0003B69002BE5D17B68202283F842207B684E
:1058F00000221A6300BF5437BD465DF8047B704731
:1059000080B584B000AF78607B689B6BFB60FB6800
:105910000022DA85FB680022DA84F868FFF7E4FEEB
:1059200000BF1037BD4680BD80B485B000AF786041
:105930007B6893F84130DBB2212B3ED17B689B68BA
:10594000B3F5805F14D17B681B69002B10D17B6895
:105950001B6AFB60FB681B881A467B681B68C2F3E6
:1059600008025A607B681B6A9A1C7B681A6208E00E
:105970007B681B6A591C7A6811621A787B681B68FD
:105980005A607B68DB8C9BB2013B9BB27A681946FC
:10599000D184002B0FD17B681B68DA687B681B6899
:1059A00022F08002DA607B681B68DA687B681B681B
:1059B00042F04002DA60002300E002231846143768
:1059C000BD465DF8047B704780B582B000AF78605B
:1059D0007B681B68DA687B681B6822F04002DA602B
:1059E0007B68202283F841207868FFF773FE00234C
:1059F00018460837BD4680BD80B58CB000AF7860D2
:105A00007B6893F84230DBB2222B40F0AE807B689B
:105A10009B68B3F5805F17D17B681B69002B13D19E
:105A20000023FB627B689B6ABB627B681B685B68C8
:105A30009BB2C3F308039AB2BB6A1A807B689B6A65
:105A40009A1C7B689A6226E07B689B6AFB62002353
:105A5000BB627B689B68B3F5805F07D07B689B68FF
:105A6000002B0AD17B681B69002B06D17B681B6861
:105A70005B68DAB2FB6A1A7008E07B681B685B68D7
:105A8000DBB203F07F03DAB2FB6A1A707B689B6AB1
:105A90005A1C7B689A627B68DB8D9BB2013B9BB290
:105AA0007A681946D185002B5DD17B681B68DA685E
:105AB0007B681B6822F02002DA607B681B68DA686A
:105AC0007B681B6822F48072DA607B681B685A6905
:105AD0007B681B6822F001025A617B68202283F8F0
